:020000040000fa
:080000000002040000000000f2
:020000040000fa
:10000800d2020000d2020000d2020000d202000098
:10001800d2020000d2020000d2020000d202000088
:10002800d2020000d2020000d2020000961900009d
:10003800d2020000d2020000d2020000cc1a000056
:10004800d2020000d2020000d2020000d202000058
:10005800d2020000d2020000d2020000d202000048
:10006800d2020000d2020000d2020000d202000038
:10007800d2020000d2020000d2020000d202000028
:10008800d2020000d2020000d2020000d202000018
:10009800d2020000d2020000d2020000d202000008
:1000a800d2020000d2020000d2020000d2020000f8
:1000b800d2020000d2020000d2020000d2020000e8
:1000c800d2020000d2020000d2020000d2020000d8
:1000d800d2020000d2020000d2020000d2020000c8
:1000e800d20200003a0b0000d2020000d202000047
:1000f800d2020000d2020000d2020000d2020000a8
:10010800d2020000d2020000d2020000d202000097
:10011800d2020000d2020000d2020000d202000087
:10012800d2020000d2020000d2020000d202000077
:10013800d2020000d2020000d2020000d202000067
:10014800d2020000d2020000d2020000d202000057
:10015800d2020000d2020000d2020000d202000047
:10016800d2020000d2020000d2020000d202000037
:10017800d2020000d2020000d2020000d202000027
:10018800d2020000d2020000d2020000d202000017
:10019800d2020000d2020000d2020000d202000007
:1001a800d2020000d2020000d2020000d2020000f7
:1001b800d2020000d2020000d2020000d2020000e7
:1001c800d2020000d2020000d2020000d2020000d7
:1001d800d2020000d2020000d2020000d2020000c7
:1001e800d2020000d2020000d2020000d2020000b7
:0801f800d2020000d202000057
:020000040000fa
:10020800d2020000d2020000d2020000d202000096
:10021800d2020000d2020000d2020000d202000086
:10022800d2020000d2020000d2020000961900009b
:10023800d2020000d2020000d2020000cc1a000054
:10024800d2020000d2020000d2020000d202000056
:10025800d2020000d2020000d2020000d202000046
:10026800d2020000d2020000d2020000d202000036
:10027800d2020000d2020000d2020000d202000026
:10028800d2020000d2020000d2020000d202000016
:10029800d2020000d2020000d2020000d202000006
:1002a800d2020000d2020000d2020000d2020000f6
:1002b800d2020000d2020000d2020000d2020000e6
:1002c800d2020000d2020000d2020000d2020000d6
:1002d800d2020000d2020000d2020000d2020000c6
:1002e800d20200003a0b0000d2020000d202000045
:1002f800d2020000d2020000d2020000d2020000a6
:10030800d2020000d2020000d2020000d202000095
:10031800d2020000d2020000d2020000d202000085
:10032800d2020000d2020000d2020000d202000075
:10033800d2020000d2020000d2020000d202000065
:10034800d2020000d2020000d2020000d202000055
:10035800d2020000d2020000d2020000d202000045
:10036800d2020000d2020000d2020000d202000035
:10037800d2020000d2020000d2020000d202000025
:10038800d2020000d2020000d2020000d202000015
:10039800d2020000d2020000d2020000d202000005
:1003a800d2020000d2020000d2020000d2020000f5
:1003b800d2020000d2020000d2020000d2020000e5
:1003c800d2020000d2020000d2020000d2020000d5
:1003d800d2020000d2020000d2020000d2020000c5
:1003e800d2020000d2020000d2020000d2020000b5
:0803f800d2020000d202000055
:020000040000fa
:100400006f8720000e7f22000e0188000000000090
:10041000000020000000e000020032000001200087
:10042000200288000c00070020ce210001002000df
:100430000f000700000020000000e0000200320072
:100440000000020000000000d602020000000000d0
:100450000040da000000fe00200020000000e00064
:100460000200320010002000900188000000060009
:10047000a1028800800078000000eb001a0037001d
:10048000e280400054a0b4009101ba00e280400034
:1004900054a0b4009102ba00e280400054a0b4001d
:1004a0000002eb00472bde00f507b200a601880032
:1004b000602ce10008003a000049eb000201e8006e
:1004c000020039003420ec0002f0a0008301e900b2
:1004d000f9ff3e00040037006128e100010032000e
:1004e0000082eb00040007001101ba000200e000e6
:1004f000e3ff3a000000060004d0a300e20f490029
:100500001c003900810278003549ba000201e80078
:10051000020039003420ec0002f0a0008301e90061
:100520000f0032002549ba000201e800020039003c
:100530003420ec0002f0a0008301e9000800320042
:100540000400e0000600320015c9ba000201e8000c
:10055000020039003420ec0002f0a0008301e90021
:100560008180e80054a0b4000300e000e2ff3a00fc
:10057000000006009102ba00055978008301e900e5
:10058000f7ff3200c82ade00055978008301e90030
:10059000f3ff32000400e000f1ff320011d9ba008d
:0c05a000eeff37000040da000000fe0013
:020000040000fa
:1005ac000000fa00900d0700200020006e000700ec
:1005bc008261a900500020006b0007008ca1a900eb
:1005cc0020002000680007008ce1a900100020002a
:1005dc00650007008cc1a900100020006200070014
:1005ec00510007000100370000000000804080002f
:1005fc000000e000180032001028ef00d7010700bf
:10060c00a086200010407800e14f500012003a0004
:10061c00f0862000104078000082fb00e08620006d
:10062c00104078008081fb00d086200010407800bc
:10063c000081fb00c0862000104078008080fb0009
:10064c00b0862000104078000080fb009d0207005f
:10065c003500070000003700100c800061006000be
:10066c000000e0000c003200404180000000e80077
:10067c004041880040418000ea0f500002003a00df
:10068c001000200040418800a00020003600070028
:10069c004041800046000700100c800064006000a0
:1006ac000000e000d0ff32008cc1a80050002000f8
:1006bc002d0007008cc1a900300020002a00070083
:1006cc008cc1a80020002000270007008cc1a900c5
:1006dc0010002000240007008cc1a80040418000bd
:1006ec00980007008cc1a800500020001e000700d5
:1006fc008cc1a900300020001b0007008cc1a80091
:10070c0020002000180007008cc1a9001000200058
:10071c00150007008cc1a800100020001200070073
:10072c008cc1a900b1ff37000200fa000000eb00f9
:10073c00000f780005003700a08620001e00400046
:10074c0011c0b300014878001e0fe8001e007800ad
:10075c00e50f5000f8ff34000000eb00000f7800ac
:10076c000080fa00000006000200fa00000f78007a
:10077c000c28ef0000000000604080009e0f50002d
:10078c00fdff34000080fa00000006000200fa00b1
:10079c00000f78000e28ef00000000007040800071
:1007ac009e0f5000fdff34000080fa000000060090
:1007bc000200fa00000f78001e007800e50f5000d0
:1007cc0034003200e50f50000c003c00e20f5000ea
:1007dc001e003200e20f500003003c00e10f5000fd
:1007ec000f00320055003700e30f50001c003200a0
:1007fc00e40f50001f00320050003700e70f50008c
:10080c0034003200e70f50002a003500e80f50008a
:10081c0034003200e90f50003d0032004700370031
:10082c008ce1a90010002000cfff07008ca1a900cb
:10083c0010002000ccff07008221a800100020002f
:10084c00c9ff07008261a9003c0037008221a90082
:10085c0010002000c4ff07008261a8003700370099
:10086c008221a80010002000bfff07008261a800b1
:10087c00320037008221a90010002000baff0700c7
:10088c008261a90010002000b7ff07008ce1a800ce
:10089c002a0037008221a80010002000b2ff0700b8
:1008ac008261a90010002000afff07008ce1a800b6
:1008bc00220037008221a90010002000aaff0700a7
:1008cc008261a80010002000a7ff07008ce1a8009f
:1008dc001a0037008221a80010002000a2ff070098
:1008ec00160037008221a900100020009eff07008f
:1008fc008261a900100020009bff07008ce1a90079
:10090c001000200098ff07008ca1a8000b003700f6
:10091c008221a8001000200093ff07008261a9002b
:10092c001000200090ff07008ce1a90010002000af
:10093c008dff07008ca1a800000000000080fa00c9
:10094c00000006000200fa00000f78001e0078007c
:10095c00e50f500023003200e50f50000c003c0066
:10096c00e20f500013003200e20f500003003c0075
:10097c00e10f50000b00320023003700e30f500052
:10098c0010003200e40f5000120032001e0037003d
:10099c00e70f500019003200e70f5000140035002b
:1009ac0019003700400007001000200077ff0700f7
:1009bc0015003700e90007001000200073ff070046
:1009cc0011003700f0000700100020006fff070037
:1009dc000d003700fd000700100020006bff070022
:1009ec00090037001000200068ff070006003700e0
:1009fc001000200065ff07000300370010002000e6
:100a0c0062ff0700000000000080fa0000000600f2
:100a1c000000fa000002eb00430b20000001eb0089
:100a2c00010a20000000eb00a6010700803e200018
:100a3c0056ff07000002eb00430b2000620420006d
:100a4c00a10520000000eb009e010700803e200065
:100a5c004eff07000002eb00e3062000e20120003d
:100a6c00110420000000eb0096010700803e2000de
:100a7c0046ff07000002eb0053042000e2012000b7
:100a8c008000eb000000eb008e010700803e200090
:100a9c003eff07000080fa00000006000000fa008c
:100aac000080fa00000006000000fa000002eb00d3
:100abc00430b20000001eb00010a20000000eb00ba
:100acc0080010700803e200030ff07000002eb0091
:100adc00430b20000001eb00010a2000400b20001a
:100aec0078010700803e200028ff07000002eb0081
:100afc00430b200082022000a1052000400b2000a7
:100b0c00700107001000200020ff07000080fa0091
:100b1c00000006000000fa000002eb00430b20006e
:100b2c000001eb00010a20000000eb00650107004a
:100b3c00803e200015ff07000002eb00430b200055
:100b4c0062042000a10520000000eb005d010700fd
:100b5c00803e20000dff07000002eb00e3062000a2
:100b6c00e2012000110420000000eb0055010700f9
:100b7c00803e200005ff07000002eb00530420001c
:100b8c00e20120008000eb000000eb004d010700ab
:100b9c00803e2000fdfe07007b000700803e200009
:100bac00fafe07000002eb00430b2000220320009a
:100bbc00a10520000000eb0042010700803e200050
:100bcc00f2fe07000002eb00430b20000001eb00db
:100bdc00010a20000000eb003a0107001000200081
:100bec00eafe07000080fa00000006000000fa0090
:100bfc000002eb00430b20000001eb00010a200077
:100c0c000000eb002f010700803e2000dffe0700f4
:100c1c000002eb00430b200062042000a105200021
:100c2c000000eb0027010700803e2000d7fe0700e4
:100c3c000002eb0023082000a2042000a1002000e9
:100c4c000000eb001f010700803e2000cffe0700d4
:100c5c004d000700803e2000ccfe07000002eb0098
:100c6c00430b200062042000010520000000eb0073
:100c7c0014010700803e2000c4fe07000002eb00b8
:100c8c00430b20000001eb00010a20000000eb00e8
:100c9c000c01070010002000bcfe07000080fa00c9
:100cac00000006000000fa000002eb00430b2000dd
:100cbc000001eb00010a20000000eb00010107001d
:100ccc00803e2000b1fe07000002eb00e30620008e
:100cdc00c2032000010520000000eb00f900070012
:100cec00803e2000a9fe07000002eb005304200008
:100cfc00e20120008000eb000000eb00f100070097
:100d0c00803e2000a1fe07001f000700803e20004f
:100d1c009efe07000002eb00430620001204200098
:100d2c00a10520000000eb00e6000700803e20003b
:100d3c0096fe07000002eb00430b20000001eb00c5
:100d4c00010a20000000eb00de000700100020006c
:100d5c008efe07000080fa00000006000000fa007a
:100d6c000002eb00430b20000001eb00010a200005
:100d7c000000eb00d30007001000200083fe0700ea
:100d8c000080fa00000006000000fa0005003700a1
:100d9c00301580000000e90030158800100020009c
:100dac007afe070031158000f01f2000808f500064
:100dbc00f7ff3e0050202000301588001000200066
:100dcc0072fe07000080fa00000006000000fa0026
:100ddc005045200030158800100020006bfe0700e5
:100dec0000452000301588000080fa000000060045
:100dfc000000fa000002eb00a3052000a205200071
:100e0c00a1052000a0052000ae0007001000200066
:100e1c005efe07000080fa00000006000e00fa00db
:100e2c00600798006000200010079800000e20005a
:100e3c00200798005049200030079800a01380002c
:100e4c0040079800ee0090001e0090000088b9004a
:100e5c00800078002e009000008f40003e00900033
:100e6c009e007800808f500002003400be0090007d
:100e7c00010f78004e0090001e00100050079800e3
:100e8c00020037005e009000440107009e007800cd
:100e9c00a0138000808f5000faff3a000080fa0007
:100eac00000006000e00fa006007980050002000b9
:100ebc0010079800001a22002007980060462200b4
:100ecc0030079800f013800040079800ee00900067
:100edc001e0090000088b900800078002e00900061
:100eec00008f40003e0090009e007800808f5000e4
:100efc0002003400be009000010f78004e009000fc
:100f0c001e00100050079800020037005e00900091
:100f1c00380107009e007800f0138000808f50008d
:100f2c00faff3a000080fa00000006000e00fa00fa
:100f3c00600798006000200010079800f00e200059
:100f4c00200798005049200030079800401480007a
:100f5c0040079800ee0090001e0090000088b90039
:100f6c00800078002e009000008f40003e00900022
:100f7c009e007800808f500002003400be0090006c
:100f8c00010f78004e0090001e00100050079800d2
:100f9c00020037005e0090002c0107009e007800d4
:100fac0040148000808f5000faff3a000080fa0055
:100fbc00000006000e00fa00600798006000200098
:100fcc0010079800000e20002007980050492000c0
:100fdc00300798009014800040079800ee009000b5
:100fec001e0090000088b900800078002e00900050
:100ffc00008f40003e0090009e007800808f5000d3
:10100c0002003400be009000010f78004e009000ea
:10101c001e00100050079800020037005e00900080
:10102c00200107009e00780090148000808f5000f3
:10103c00faff3a000080fa00000006000e00fa00e9
:10104c00600798006000200010079800f00f200047
:10105c00200798005047200030079800e0148000cb
:10106c0040079800ee0090001e0090000088b90028
:10107c00800078002e009000008f40003e00900011
:10108c009e007800808f500002003400be0090005b
:10109c00010f78004e0090001e00100050079800c1
:1010ac00020037005e009000140107009e007800db
:1010bc00e0148000808f5000faff3a000080fa00a4
:1010cc00000006004600fa00601f9800711f98008f
:1010dc00022798001327980024279800600020000e
:1010ec005007980050002000600798006000200016
:1010fc007007980060002000000f9800600020002e
:10110c00100f9800000e2000200f9800001a2200eb
:10111c00300f9800f00e2000400f9800000e2000b9
:10112c00500f9800f00f2000600f980050492000dd
:10113c00700f98006046220000179800504920005c
:10114c001017980050492000201798005047200095
:10115c0030179800a013800040179800f0138000ff
:10116c00501798004014800060179800901480006d
:10117c0070179800e0148000001f9800ee18900083
:10118c005e0090000088b900800078002e08900066
:10119c00008f4000fe1890006e0090000088b9008f
:1011ac00800078003e0890000080400010079800f6
:1011bc008e2090007e0090000088b900800078009e
:1011cc004e08900000804000200798009e20900060
:1011dc000e0890000088b900800078005e0890002e
:1011ec000080400030079800ae2090001e08900050
:1011fc000088b900800078006e08900000804000e4
:10120c00400798007e0890009e007800808f500068
:10121c0002003400fe089000010f78009e00900040
:10122c000e109000808f5000020034008e10900041
:10123c0011079800ae0090001e109000808f500097
:10124c00020034009e10900021079800be00900010
:10125c002e109000808f500002003400ae109000d1
:10126c0031079800ce0090003e109000808f500007
:10127c0002003400be109000410798004e10900000
:10128c001e001000101f98009e0090005e10900031
:10129c0000805000201f9800ae0090006e1090004f
:1012ac0000805000301f9800be0090007e1090000f
:1012bc0000805000401f9800ce0090000e18900047
:1012cc0000805000501f98001e0037009e007800d0
:1012dc00a0138000808f5000020032001e18900076
:1012ec002e0007009e009000f0138000808f5000ad
:1012fc00020032002e1890003e000700ae00900055
:10130c0040148000808f5000020032003e18900084
:10131c004e000700be00900090148000808f50009b
:10132c00020032004e1890005e000700ce009000c4
:10133c00e0148000808f5000020032005e18900094
:10134c006e0007009e007800a0138000808f500074
:10135c00deff3a009e009000f0138000808f50005a
:10136c00daff3a00ae00900040148000808f5000ed
:10137c00d6ff3a00be00900090148000808f500081
:10138c00d2ff3a00ce009000e0148000808f500015
:10139c00ceff3a000080fa00000006000600fa00ba
:1013ac002007980010002000000f7800a013800088
:1013bc00100798002e0090000000e00006003d0091
:1013cc001e0090001e005000a0138800100020008a
:1013dc00eefc0700050037001e0090001e004000c8
:1013ec00a013880010002000e8fc07000080fa0021
:1013fc00000006000600fa002007980010002000ec
:10140c00000f7800f0138000100798002e00900059
:10141c000000e00006003d001e0090001e00500081
:10142c00f013880020002000d8fc070005003700ce
:10143c001e0090001e004000f013880020002000c9
:10144c00d2fc07000080fa00000006000600fa003b
:10145c002007980010002000000f78004014800036
:10146c00100798002e0090000000e00006003d00e0
:10147c001e0090001e005000401488001000200038
:10148c00c2fc0700050037001e0090001e00400043
:10149c004014880010002000bcfc07000080fa00fb
:1014ac00000006000600fa0020079800100020003b
:1014bc00000f780090148000100798002e00900008
:1014cc000000e00006003d001e0090001e005000d1
:1014dc009014880010002000acfc070005003700b9
:1014ec001e0090001e004000901488001000200088
:1014fc00a6fc07000080fa00000006000600fa00b7
:10150c002007980010002000000f7800e0148000e5
:10151c00100798002e0090000000e00006003d002f
:10152c001e0090001e005000e014880010002000e7
:10153c0096fc0700050037001e0090001e004000be
:10154c00e01488001000200090fc07000080fa00d6
:10155c00000006000800fa0010002000000f7800c0
:10156c00000e20001007980050492000200798001a
:10157c0000492000300798001e009000a01388003e
:10158c001000200081fc070006003700a11380002a
:10159c001e00780000804000a0138800400120004d
:1015ac007afc0700ae009000a0138000808f5000e2
:1015bc00f6ff3e0006003700a11380001e007800e5
:1015cc0000805000a0138800400120006ffc070031
:1015dc009e009000a0138000808f5000f6ff390011
:1015ec0006003700a11380001e0078000080400028
:1015fc00a0138800e001200064fc0700be009000ee
:10160c00a0138000808f5000f6ff3e000080fa008f
:10161c00000006000000fa00000028008017880077
:10162c00f422ef000001200006010700f007200063
:10163c00f80007000028ef000000eb00cd000700c9
:10164c000000eb00d70007008a20a9009a20a80010
:10165c000080fa00000006000000fa00edff070011
:10166c000080fa00000006003600f800809fbe00e3
:10167c00829fbe00849fbe00869fbe000200fa00bf
:10168c0000408000e20f50009a003200e20f500040
:10169c0003003900e30f500089003200a700370027
:1016ac008117800000402000008060000000e000f6
:1016bc0005003a00a11780000002200000806000a5
:1016cc000000e0000a0032008117800000082000b2
:1016dc00008060000000e00021003200a1178000b3
:1016ec0000202000008060000000e0001c003200a0
:1016fc00a0178000640060000000e0000b003a00be
:10170c00100020000f01070018e8b700100020009f
:10171c000040880018c8bf000004e0003800320008
:10172c0050178000004f7800360037000000eb00a7
:10173c0004010700204080000000e000050032009a
:10174c0020408000104078000080fb00601788006b
:10175c00f182a800200020000040880029003700fa
:10176c008117800000402000008060000000e00035
:10177c0024003200a11780000002200000806000cd
:10178c000000e0001f003a00a01780006400600019
:10179c000000e00004003a000a68ef00300020006e
:1017ac0000408800130037000ac8bf000004e000a6
:1017bc000d0032000000eb00e2000700204080002a
:1017cc000000e0000500320020408000104078004e
:1017dc000080fb0060178800f182a8002000200028
:1017ec0000408800030037000a68ef00300020003a
:1017fc000040880050178000004f7800010037002f
:10180c000000000000408000e10f50004c003a0046
:10181c00a117800000022000008060000000e000a2
:10182c0049003200a11780000004200000806000f5
:10183c000000e0001e003a00104080000000e000b4
:10184c001700320051178000f00f2000808f5000dd
:10185c000f003200a0408000511780000141780039
:10186c00a186200082707800a04080000000e80073
:10187c00a0408800a0408000e50f50000400340018
:10188c00804080000000e800804088001428ef00b1
:10189c00104080005117800081407800014878008a
:1018ac0020002000a700070018e8b7002900370027
:1018bc0050178000004f7800f4c2a90025003700b3
:1018cc00300020009f00070018e8b70010c0b300dc
:1018dc000ae8b70018c8bf000004e000020032009c
:1018ec0050178000004f7800100020000040880046
:1018fc0018003700a117800000002800008060004d
:10190c000000e0000b003a000000eb008d00070027
:10191c00204080000000e0000d00320020408000dc
:10192c00104078000080fb0060178800f182a8004e
:10193c00080037000028ef0006003700ffff3700d3
:10194c000000000003003700000000000100370019
:10195c00000000008a20a9000080fa004f03be009e
:10196c004f02be004f01be004f00be003600f90012
:10197c00004006000200fa00000f78009e0078007c
:10198c00214088000080fa00000006000200fa00e6
:10199c00000f78001e007800f6ff07000080fa00a8
:1019ac00000006000200fa00000f78009e0078008c
:1019bc00114088000080fa00000006000200fa00c6
:1019cc00000f78001e007800f6ff07000080fa0078
:1019dc00000006000000fa00204080000080fa00a1
:1019ec00000006000000fa00faff07000080fa0071
:1019fc00000006000000fa00104080000080fa0091
:101a0c00000006000000fa00faff07000080fa0050
:101a1c00000006000200fa00000f78009e0078001b
:101a2c00c11788000080fa00000006000200fa00ce
:101a3c00000f78001e007800f6ff07000080fa0007
:101a4c00000006000200fa00000f7800f0072000ea
:101a5c009e007800808f500002003600f142a800f2
:101a6c0001003700f142a9000028ef009e00780029
:101a7c00b11788000080fa00000006000200fa008e
:101a8c00000f78001e007800eeff07000080fa00bf
:101a9c00000006000000fa00204080000000e0007a
:101aac000600320020408000104078000080fb00cf
:101abc0060178800f182a8000100370000000000c8
:101acc000080fa00000006000000fa0010408000c0
:101adc000000e0001800320051178000f00f2000c9
:101aec00808f50000f003200a04080005117800002
:101afc0001417800a186200082707800a04080000f
:101b0c000000e800a0408800a0408000e50f5000d5
:101b1c0004003400804080000000e8008040880011
:101b2c001428ef001040800051178000814078008d
:101b3c000148780001003700000000000080fa0026
:101b4c00000006000200fa00000f78001e0078006a
:101b5c00e10f50000d003200e10f5000030039007e
:101b6c00e20f50000f0032002e0037003140800091
:101b7c00a0822000008040007eff070030408000e3
:101b8c000000e80030408800260037000828ef00ed
:101b9c0010c0b30017e8b7006081200081ff070078
:101bac002000370017c8bf000004e0001600320008
:101bbc00404080000000e00008003a0016c8bf005a
:101bcc000080fb004800dd00304088004040800071
:101bdc000000e800404088001200370040408000c0
:101bec00e10f50000e003a0016c8bf008080fb00c9
:101bfc003040800001007000304088000828ef0061
:101c0c001768ef0007003700304080006281200029
:101c1c0012417800a1822000827078000100370008
:101c2c000000000010c0b3000080fa0000000600a5
:101c3c000000fa006000210000158800a222ef00cd
:101c4c000071220020158800004520003015880006
:101c5c00a822ef000015800000407800674060006b
:101c6c000080fb00e04088000080fa0000000600c5
:101c7c000000fa00eeff07000080fa0000000600ea
:101c8c000000fa0041048000004020000080600049
:101c9c000000e000010032008940a9000080fa0039
:101cac00000006000000fa00f5ff07000080fa00b3
:101cbc00000006000000fa00e040800000407800c0
:101ccc00674060000080fb00670060000215800028
:101cdc0081ff2f0081006100010070000015880059
:101cec000080fa00000006000000fa00f1ff070077
:101cfc000080fa00000006000000fa0000158000c9
:101d0c000000a1000010a1000020a1000015880017
:101d1c000080fa00000006000000fa00f6ff070041
:101d2c000080fa00000006000200fa00000f7800a4
:101d3c009e007800311588000080fa000000060033
:101d4c000200fa00000f78001e007800f6ff070072
:101d5c000080fa00000006000400fa00000f780072
:101d6c00110798009e007800311588009e009000a5
:101d7c00211588000080fa00000006000400fa001b
:101d8c00000f7800110798009e0090001e0078004c
:101d9c00f1ff07000080fa00000006000400fa00c2
:101dac00000f7800110798009e007800311588000c
:101dbc009e009000211588000080fa0000000600ab
:101dcc000400fa00000f7800110798009e009000a4
:101ddc001e007800f1ff07000080fa0000000600ea
:101dec000400fa00000f7800110798009e0078009c
:101dfc00311588009e009000211588000080fa00a3
:101e0c00000006000400fa00000f7800110798008b
:101e1c009e0090001e007800f1ff07000080fa0081
:101e2c00000006000000fa00400480004a00de00ba
:101e3c00614060000080fb0000f0a7000000ea0099
:101e4c000000ea004f00de00004078000080fa003d
:101e5c00000006000000fa00f2ff07000080fa0004
:101e6c00000006000400fa00100798001e00900005
:101e7c00e10f50000f003200e10f50000300390059
:101e8c00e20f5000150032001e00370000158000d4
:101e9c004400de00614060000080fb0000f0a70001
:101eac000000ea000000ea004f00de00004f78005e
:101ebc0014003700001580004500de006140600012
:101ecc000080fb0000f0a7000000ea000000ea0020
:101edc004f00de00004f78000a003700001580002c
:101eec004600de00614060000080fb0000f0a700af
:101efc000000ea000000ea004f00de00004f78000e
:101f0c00000000001e4078000080fa00000006006f
:101f1c000200fa00000f78001e007800d1ff0700c5
:101f2c000080fa00000006000200fa00000f7800a2
:101f3c001e007800e10f500007003200e10f500046
:101f4c0003003900e20f5000050032000600370094
:101f5c00a082a90004003700a0a2a900020037004b
:101f6c00a0c2a900000000000080fa0000000600da
:101f7c000200fa00000f78001e007800eaff07004c
:101f8c000080fa00000006000000fa00a2c2a800bf
:101f9c000080fa00000006000000fa001015800016
:101fac004600de00614060000080fb0000f0a700ee
:101fbc000000ea000000ea004f00de00004078005c
:101fcc000080fa00000006000000fa00f2ff070093
:101fdc000080fa00000006000000fa00a2c2a9006e
:101fec000080fa00000006000000fa00faff07006b
:101ffc000080fa00000006000000fa0060002100da
:10200c00b01488009822ef0000712200d0148800d0
:10201c00f00f2000e01488009e22ef00b014800026
:10202c0000407800674060000080fb00f0408800b2
:10203c000080fa00000006000000fa00eeff070026
:10204c000080fa00000006000000fa004104800045
:10205c0000202000008060000000e0000100320041
:10206c008920a9000080fa00000006000000fa0098
:10207c00f5ff07000080fa00000006000000fa00df
:10208c00f040800000407800674060000080fb005a
:10209c0067006000b214800081ff2f008100610096
:1020ac0001007000b01488000080fa0000000600e7
:1020bc000000fa00f1ff07000080fa0000000600a3
:1020cc000000fa00b01480000000a1000010a10074
:1020dc000020a100b01488000080fa000000060067
:1020ec000000fa00f6ff07000080fa00000006006e
:1020fc000200fa00000f78009e007800e1148800be
:10210c000080fa00000006000200fa00000f7800c0
:10211c001e007800f6ff07000080fa0000000600a1
:10212c000400fa00000f7800110798009e00780058
:10213c00e11488009e009000d11488000080fa0001
:10214c00000006000400fa00000f78001107980048
:10215c009e0090001e007800f1ff07000080fa003e
:10216c00000006000400fa00000f78001107980028
:10217c009e007800e11488009e009000d114880025
:10218c000080fa00000006000400fa00000f78003e
:10219c00110798009e0090001e007800f1ff0700c8
:1021ac000080fa00000006000400fa00000f78001e
:1021bc00110798009e007800e11488009e009000a2
:1021cc00d11488000080fa00000006000400fa0018
:1021dc00000f7800110798009e0090001e007800f8
:1021ec00f1ff07000080fa00000006000000fa0072
:1021fc00400480004900de00614060000080fb006c
:10220c0000f0a7000000ea000000ea004f00de002a
:10221c00004078000080fa00000006000000fa0080
:10222c00f2ff07000080fa00000006000400fa002c
:10223c00100798001e009000e10f50000f003200b4
:10224c00e10f500003003900e20f5000150032007e
:10225c001e003700b01480004400de0061406000b6
:10226c000080fb0000f0a7000000ea000000ea007c
:10227c004f00de00004f780014003700b0148000cf
:10228c004500de00614060000080fb0000f0a7000c
:10229c000000ea000000ea004f00de00004f78006a
:1022ac000a003700b01480004600de006140600078
:1022bc000080fb0000f0a7000000ea000000ea002c
:1022cc004f00de00004f7800000000001e40780038
:1022dc000080fa00000006000200fa00000f7800ef
:1022ec001e007800d1ff07000080fa0000000600f5
:1022fc000200fa00000f78001e007800e10f500079
:10230c0007003200e10f500003003900e20f5000cb
:10231c0005003200060037009682a9000400370041
:10232c0096a2a9000200370096c2a9000000000086
:10233c000080fa00000006000200fa00000f78008e
:10234c001e007800eaff07000080fa00000006007b
:10235c000000fa0098c2a8000080fa0000000600f5
:10236c000000fa00c01480004600de0061406000ee
:10237c000080fb0000f0a7000000ea000000ea006b
:10238c004f00de00004078000080fa0000000600dc
:10239c000000fa00f2ff07000080fa0000000600bf
:1023ac000000fa0098c2a9000080fa0000000600a4
:1023bc000000fa00faff07000080fa000000060097
:1023cc000000fa0060002100601488008e22ef00eb
:1023dc00007122008014880050492000901488005d
:1023ec009422ef0060148000004078006740600089
:1023fc000080fb00004188000080fa00000006000d
:10240c000000fa00eeff07000080fa000000060052
:10241c000000fa00310480000040200000806000c1
:10242c000000e000010032008740a9000080fa00a3
:10243c00000006000000fa00f5ff07000080fa001b
:10244c00000006000000fa00004180000040780007
:10245c00674060000080fb00670060006214800031
:10246c0081ff2f0081006100010070006014880062
:10247c000080fa00000006000000fa00f1ff0700df
:10248c000080fa00000006000000fa0060148000d2
:10249c000000a1000010a1000020a1006014880021
:1024ac000080fa00000006000000fa00f6ff0700aa
:1024bc000080fa00000006000200fa00000f78000d
:1024cc009e007800911488000080fa00000006003d
:1024dc000200fa00000f78001e007800f6ff0700db
:1024ec000080fa00000006000400fa00000f7800db
:1024fc00110798009e007800911488009e009000af
:10250c00811488000080fa00000006000400fa0024
:10251c00000f7800110798009e0090001e007800b4
:10252c00f1ff07000080fa00000006000400fa002a
:10253c00000f7800110798009e0078009114880015
:10254c009e009000811488000080fa0000000600b4
:10255c000400fa00000f7800110798009e0090000c
:10256c001e007800f1ff07000080fa000000060052
:10257c000400fa00000f7800110798009e00780004
:10258c00911488009e009000811488000080fa004d
:10259c00000006000400fa00000f780011079800f4
:1025ac009e0090001e007800f1ff07000080fa00ea
:1025bc00000006000000fa00300480004a00de0033
:1025cc00614060000080fb0000f0a7000000ea0002
:1025dc000000ea004f00de00004078000080fa00a6
:1025ec00000006000000fa00f2ff07000080fa006d
:1025fc00000006000400fa00100798001e0090006e
:10260c00e10f50000f003200e10f500003003900c1
:10261c00e20f5000150032001e00370060148000dd
:10262c004400de00614060000080fb0000f0a70069
:10263c000000ea000000ea004f00de00004f7800c6
:10264c0014003700601480004500de00614060001b
:10265c000080fb0000f0a7000000ea000000ea0088
:10266c004f00de00004f78000a0037006014800035
:10267c004600de00614060000080fb0000f0a70017
:10268c000000ea000000ea004f00de00004f780076
:10269c00000000001e4078000080fa0000000600d8
:1026ac000200fa00000f78001e007800d1ff07002e
:1026bc000080fa00000006000200fa00000f78000b
:1026cc001e007800e10f500007003200e10f5000af
:1026dc0003003900e20f50000500320006003700fd
:1026ec008c82a900040037008ca2a90002003700dc
:1026fc008cc2a900000000000080fa000000060057
:10270c000200fa00000f78001e007800eaff0700b4
:10271c000080fa00000006000000fa008ec2a8003b
:10272c000080fa00000006000000fa00701480001f
:10273c004600de00614060000080fb0000f0a70056
:10274c000000ea000000ea004f00de0000407800c4
:10275c000080fa00000006000000fa00f2ff0700fb
:10276c000080fa00000006000000fa008ec2a900ea
:10277c000080fa00000006000000fa00faff0700d3
:10278c000080fa00000006000000fa006000210042
:10279c00101488008422ef0000712200301488008d
:1027ac00f00e2000401488008a22ef0010148000e4
:1027bc0000407800674060000080fb0010418800fa
:1027cc000080fa00000006000000fa00eeff07008f
:1027dc000080fa00000006000000fa0031048000be
:1027ec0000202000008060000000e00001003200aa
:1027fc008720a9000080fa00000006000000fa0003
:10280c00f5ff07000080fa00000006000000fa0047
:10281c001041800000407800674060000080fb00a1
:10282c00670060001214800081ff2f00810061009e
:10283c0001007000101488000080fa0000000600ef
:10284c000000fa00f1ff07000080fa00000006000b
:10285c000000fa00101480000000a1000010a1007c
:10286c000020a100101488000080fa00000006006f
:10287c000000fa00f6ff07000080fa0000000600d6
:10288c000200fa00000f78009e00780041148800c6
:10289c000080fa00000006000200fa00000f780029
:1028ac001e007800f6ff07000080fa00000006000a
:1028bc000400fa00000f7800110798009e007800c1
:1028cc00411488009e009000311488000080fa00aa
:1028dc00000006000400fa00000f780011079800b1
:1028ec009e0090001e007800f1ff07000080fa00a7
:1028fc00000006000400fa00000f78001107980091
:10290c009e007800411488009e00900031148800cd
:10291c000080fa00000006000400fa00000f7800a6
:10292c00110798009e0090001e007800f1ff070030
:10293c000080fa00000006000400fa00000f780086
:10294c00110798009e007800411488009e009000aa
:10295c00311488000080fa00000006000400fa0020
:10296c00000f7800110798009e0090001e00780060
:10297c00f1ff07000080fa00000006000000fa00da
:10298c00300480004900de00614060000080fb00e4
:10299c0000f0a7000000ea000000ea004f00de0093
:1029ac00004078000080fa00000006000000fa00e9
:1029bc00f2ff07000080fa00000006000400fa0095
:1029cc00100798001e009000e10f50000f0032001d
:1029dc00e10f500003003900e20f500015003200e7
:1029ec001e003700101480004400de0061406000bf
:1029fc000080fb0000f0a7000000ea000000ea00e5
:102a0c004f00de00004f78001400370010148000d7
:102a1c004500de00614060000080fb0000f0a70074
:102a2c000000ea000000ea004f00de00004f7800d2
:102a3c000a003700101480004600de006140600080
:102a4c000080fb0000f0a7000000ea000000ea0094
:102a5c004f00de00004f7800000000001e407800a0
:102a6c000080fa00000006000200fa00000f780057
:102a7c001e007800d1ff07000080fa00000006005d
:102a8c000200fa00000f78001e007800e10f5000e1
:102a9c0007003200e10f500003003900e20f500034
:102aac0005003200060037008282a90004003700be
:102abc0082a2a9000200370082c2a9000000000017
:102acc000080fa00000006000200fa00000f7800f7
:102adc001e007800eaff07000080fa0000000600e4
:102aec000000fa0084c2a8000080fa000000060072
:102afc000000fa00201480004600de0061406000f7
:102b0c000080fb0000f0a7000000ea000000ea00d3
:102b1c004f00de00004078000080fa000000060044
:102b2c000000fa00f2ff07000080fa000000060027
:102b3c000000fa0084c2a9000080fa000000060020
:102b4c000000fa00faff07000080fa0000000600ff
:102b5c000000fa0060402000c01388007a22ef00c9
:102b6c0000e22400e013880060462200f013880085
:102b7c008022ef00c01380000040780067406000a6
:102b8c000080fb00204188000080fa000000060055
:102b9c000000fa00eeff07000080fa0000000600bb
:102bac000000fa0021048000000420000080600076
:102bbc000000e0000100320084c0a9000080fa008f
:102bcc00000006000000fa00f5ff07000080fa0084
:102bdc00000006000000fa00204180000040780050
:102bec00674060000080fb0067006000c21380003b
:102bfc0081ff2f008100610001007000c01388006c
:102c0c000080fa00000006000000fa00f1ff070047
:102c1c000080fa00000006000000fa00c0138000db
:102c2c000000a1000010a1000020a100c01388002a
:102c3c000080fa00000006000000fa00f6ff070012
:102c4c000080fa00000006000200fa00000f780075
:102c5c009e007800f11388000080fa000000060046
:102c6c000200fa00000f78001e007800f6ff070043
:102c7c000080fa00000006000400fa00000f780043
:102c8c00110798009e007800f11388009e009000b8
:102c9c00e11388000080fa00000006000400fa002e
:102cac00000f7800110798009e0090001e0078001d
:102cbc00f1ff07000080fa00000006000400fa0093
:102ccc00000f7800110798009e007800f11388001f
:102cdc009e009000e11388000080fa0000000600be
:102cec000400fa00000f7800110798009e00900075
:102cfc001e007800f1ff07000080fa0000000600bb
:102d0c000400fa00000f7800110798009e0078006c
:102d1c00f11388009e009000e11388000080fa00f7
:102d2c00000006000400fa00000f7800110798005c
:102d3c009e0090001e007800f1ff07000080fa0052
:102d4c00000006000000fa00200480004600de00af
:102d5c00614060000080fb0000f0a7000000ea006a
:102d6c000000ea004f00de00004078000080fa000e
:102d7c00000006000000fa00f2ff07000080fa00d5
:102d8c00000006000400fa00100798001e009000d6
:102d9c00e10f50000f003200e10f5000030039002a
:102dac00e20f5000150032001e003700c0138000e7
:102dbc004400de00614060000080fb0000f0a700d2
:102dcc000000ea000000ea004f00de00004f78002f
:102ddc0014003700c01380004500de006140600025
:102dec000080fb0000f0a7000000ea000000ea00f1
:102dfc004f00de00004f78000a003700c01380003f
:102e0c004600de00614060000080fb0000f0a7007f
:102e1c000000ea000000ea004f00de00004f7800de
:102e2c00000000001e4078000080fa000000060040
:102e3c000200fa00000f78001e007800d1ff070096
:102e4c000080fa00000006000200fa00000f780073
:102e5c001e007800e10f500007003200e10f500017
:102e6c0003003900e20f5000050032000600370065
:102e7c007882a9000400370078a2a900020037006c
:102e8c0078c2a900000000000080fa0000000600d3
:102e9c000200fa00000f78001e007800eaff07001d
:102eac000080fa00000006000000fa007ac2a800b8
:102ebc000080fa00000006000000fa00d013800029
:102ecc004600de00614060000080fb0000f0a700bf
:102edc000000ea000000ea004f00de00004078002d
:102eec000080fa00000006000000fa00f2ff070064
:102efc000080fa00000006000000fa007ac2a90067
:102f0c000080fa00000006000000fa00faff07003b
:102f1c000080fa00000006000000fa0060002100aa
:102f2c00701388007022ef0000712200901388004b
:102f3c00000e2000a01388007622ef007013800092
:102f4c0000407800674060000080fb003041880042
:102f5c000080fa00000006000000fa00eeff0700f7
:102f6c000080fa00000006000000fa002004800037
:102f7c00640060000000e000010032008440a90001
:102f8c000080fa00000006000000fa00f6ff0700bf
:102f9c000080fa00000006000000fa0030418000ba
:102fac0000407800674060000080fb006700600014
:102fbc007213800081ff2f008100610001007000fe
:102fcc00701388000080fa00000006000000fa0070
:102fdc00f1ff07000080fa00000006000000fa0074
:102fec00701380000000a1000010a1000020a100bf
:102ffc00701388000080fa00000006000000fa0040
:10300c00f6ff07000080fa00000006000200fa003c
:10301c00000f78009e007800a11388000080fa0051
:10302c00000006000200fa00000f78001e00780075
:10303c00f6ff07000080fa00000006000400fa000a
:10304c00000f7800110798009e007800a1138800eb
:10305c009e009000911388000080fa00000006008a
:10306c000400fa00000f7800110798009e009000f1
:10307c001e007800f1ff07000080fa000000060037
:10308c000400fa00000f7800110798009e007800e9
:10309c00a11388009e009000911388000080fa0014
:1030ac00000006000400fa00000f780011079800d9
:1030bc009e0090001e007800f1ff07000080fa00cf
:1030cc00000006000400fa00000f780011079800b9
:1030dc009e007800a11388009e0090009113880038
:1030ec000080fa00000006000400fa00000f7800cf
:1030fc00110798009e0090001e007800f1ff070059
:10310c000080fa00000006000000fa002004800095
:10311c004200de00614060000080fb0000f0a70070
:10312c000000ea000000ea004f00de0000407800da
:10313c000080fa00000006000000fa00f2ff070011
:10314c000080fa00000006000400fa001007980046
:10315c001e009000e10f50000f003200e10f5000f4
:10316c0003003900e20f5000150032001e0037003a
:10317c00701380004400de00614060000080fb00a2
:10318c0000f0a7000000ea000000ea004f00de009b
:10319c00004f780014003700701380004500de00eb
:1031ac00614060000080fb0000f0a7000000ea0016
:1031bc000000ea004f00de00004f78000a003700e4
:1031cc00701380004600de00614060000080fb0050
:1031dc0000f0a7000000ea000000ea004f00de004b
:1031ec00004f7800000000001e4078000080fa00bc
:1031fc00000006000200fa00000f78001e007800a4
:10320c00d1ff07000080fa00000006000200fa005f
:10321c00000f78001e007800e10f5000070032000c
:10322c00e10f500003003900e20f5000050032009e
:10323c00060037006e82a900040037006ea2a900b8
:10324c00020037006ec2a900000000000080fa00e6
:10325c00000006000200fa00000f78001e00780043
:10326c00eaff07000080fa00000006000000fa00e8
:10327c0070c2a8000080fa00000006000000fa00ee
:10328c00801380004600de00614060000080fb007f
:10329c0000f0a7000000ea000000ea004f00de008a
:1032ac00004078000080fa00000006000000fa00e0
:1032bc00f2ff07000080fa00000006000000fa0090
:1032cc0070c2a9000080fa00000006000000fa009d
:1032dc00faff07000080fa00000006000000fa0068
:1032ec0000012800801288004c22ef00007122009f
:1032fc00701288008460a9009460a80000872000e8
:10330c008040eb00014878000080fa0000000600c5
:10331c000000fa00f1ff07000080fa000000060030
:10332c003600f800809fbe00829fbe00849fbe00c6
:10333c00869fbe000000fa00d04080000000e8002c
:10334c00d0408800d04080000000e0000200320035
:10335c003f0007001a28ef0010872000104078006b
:10336c008040e8001087200001487800008720008a
:10337c0011c0b300014878008460a9000080fa00f5
:10338c004f03be004f02be004f01be004f00be00f7
:10339c003600f900004006000200fa00000f780029
:1033ac009e00780071128800008720008040eb009e
:1033bc00014878000080fa00000006000200fa00c4
:1033cc00000f78001e007800f3ff07000080fa0061
:1033dc00000006000000fa00701280000080fa0065
:1033ec00000006000000fa00faff07000080fa0057
:1033fc00000006000200fa00000f78009e00780022
:10340c0061128800008720008040eb0001487800a2
:10341c000080fa00000006000200fa00000f78009d
:10342c001e007800f3ff07000080fa000000060081
:10343c000000fa00601280000080fa000000060014
:10344c000000fa00faff07000080fa0000000600f6
:10345c000000fa00604080000000e8006040880036
:10346c000080fa00000006000000fa00008720002f
:10347c008040eb00014878009460a80051e2a8005d
:10348c000080fa00000006000000fa00f6ff0700ba
:10349c000080fa00000006000000fa0051e2a900ca
:1034ac009460a9000080fa00000006000000fa00f9
:1034bc00f9ff07000080fa00000006000200fa0085
:1034cc0000872000104f78001e4078000004e000b8
:1034dc0003003200008720008040eb000148780098
:1034ec001e4078000080fa00000006000000fa0080
:1034fc00f2ff07000080fa00000006000000fa004e
:10350c0010872000104078000080fa0000000600b0
:10351c000000fa00f9ff07000080fa000000060026
:10352c000000fa00108720008040eb000148780072
:10353c000080fa00000006000000fa00f8ff070007
:10354c000080fa00000006000000fa0000002800cd
:10355c00e01288005222ef0000fa2000c01288000e
:10356c0084e0a90094e0a800208720008040eb00b4
:10357c00014878000080fa00000006000000fa0004
:10358c00f1ff07000080fa00000006003600f8008a
:10359c00809fbe00829fbe00849fbe00869fbe009f
:1035ac000000fa003e000700308720001040780031
:1035bc008040e800308720000148780020872000f8
:1035cc0011c0b3000148780084e0a9000080fa0023
:1035dc004f03be004f02be004f01be004f00be00a5
:1035ec003600f900004006000200fa00000f7800d7
:1035fc009e007800c1128800208720008040eb00dc
:10360c00014878000080fa00000006000200fa0071
:10361c00000f78001e007800f3ff07000080fa000e
:10362c00000006000000fa00c01280000080fa00c2
:10363c00000006000000fa00faff07000080fa0004
:10364c00000006000200fa00000f78009e007800cf
:10365c0091128800208720008040eb000148780000
:10366c000080fa00000006000200fa00000f78004b
:10367c001e007800f3ff07000080fa00000006002f
:10368c000000fa00901280000080fa000000060092
:10369c000000fa00faff07000080fa0000000600a4
:1036ac000000fa00704080000000e80070408800c4
:1036bc000080fa00000006000000fa0020872000bd
:1036cc008040eb000148780094e0a8005de2a8007f
:1036dc000080fa00000006000000fa00f6ff070068
:1036ec000080fa00000006000000fa005de2a9006c
:1036fc0094e0a9000080fa00000006000000fa0027
:10370c00f9ff07000080fa00000006000200fa0032
:10371c0020872000104f78001e4078000004e00045
:10372c0003003200208720008040eb000148780025
:10373c001e4078000080fa00000006000000fa002d
:10374c00f2ff07000080fa00000006000000fa00fb
:10375c0030872000104078000080fa00000006003e
:10376c000000fa00f9ff07000080fa0000000600d4
:10377c000000fa00308720008040eb000148780000
:10378c000080fa00000006000000fa00f8ff0700b5
:10379c000080fa00000006000000fa00000128007a
:1037ac00f01288005622ef0000e22400d0128800ac
:1037bc00408720008040eb00014878000080fa0030
:1037cc00000006000000fa00f3ff07000080fa007a
:1037dc00000006000000fa00210480000010200008
:1037ec00008060000000e0000900320050872000db
:1037fc00104078008040e800508720000148780095
:10380c004087200011c0b300014878008500a90052
:10381c000080fa00000006000000fa00edff07002f
:10382c000080fa00000006000200fa00000f780089
:10383c009e007800d1128800408720008040eb0069
:10384c00014878000080fa00000006000200fa002f
:10385c00000f78001e007800f3ff07000080fa00cc
:10386c00000006000000fa00d01280000080fa0070
:10387c00000006000000fa00faff07000080fa00c2
:10388c00000006000200fa00000f78009e0078008d
:10389c00b1128800408720008040eb00014878007e
:1038ac000080fa00000006000200fa00000f780009
:1038bc001e007800f3ff07000080fa0000000600ed
:1038cc000000fa00b01280000080fa000000060030
:1038dc000000fa00faff07000080fa000000060062
:1038ec000000fa00408720008040eb00014878007f
:1038fc005fe2a8000080fa00000006000000fa0059
:10390c00f7ff07000080fa00000006000000fa0034
:10391c005fe2a9000080fa00000006000000fa0037
:10392c00faff07000080fa00000006000200fa000f
:10393c0040872000104f78001e4078000004e00003
:10394c0003003200408720008040eb0001487800e3
:10395c001e4078000080fa00000006000000fa000b
:10396c00f2ff07000080fa00000006000000fa00d9
:10397c0050872000104078000080fa0000000600fc
:10398c000000fa00f9ff07000080fa0000000600b2
:10399c000000fa00508720008040eb0001487800be
:1039ac000080fa00000006000000fa00f8ff070093
:0839bc000080fa000000060083
:020000040000fa
:1039c4007008000002000000800000001a080000d7
:1039d40002000000800000001c080000020000003b
:1039e400800000001e0800000200000080000000ab
:1039f40020080000020000008000000022080000ef
:103a04000200000080000000240800000200000002
:103a14008000000026080000020000008000000072
:103a24002a0800004000000082000000ffffff00a1
:103a3400ffffff00ffffff00ffffff00ffffff008e
:103a4400ffffff00ffffff00ffffff00ffffff007e
:103a5400ffffff00ffffff00ffffff00ffffff006e
:103a6400ffffff00ffffff00ffffff00ffffff005e
:103a7400ffffff00ffffff00ffffff00ffffff004e
:103a8400ff000000000800000c000000800000009f
:103a9400160800000400000082000000aa010100d2
:103aa4000000000072080000020000008000000016
:103ab4007408000002000000800000006a08000092
:103ac40006000000800000000c0800000a0000004e
:103ad40080000000280800000200000082000000ae
:083ae4000100000000000000d9
:020000040000fa
:103aec000000fa00a0002000200c880050002000ec
:103afc00000c8800000e2000700c8800f0102000d4
:103b0c00500c88008821ef0030002000900c8800b9
:103b1c0001088000f00b2000008160006004200090
:103b2c00710520000310200080497800814978003d
:103b3c0082497800f11e8000f00f2c00808060001c
:103b4c000020210001007000f01e8800011f800081
:103b5c0000fc2f00008060001001b300001f8800e3
:103b6c00011f8000f00f2c008080600000002100fd
:103b7c0001007000001f8800111f8000f00f2c0046
:103b8c008080600000f0200001007000101f880091
:103b9c00211f800000fc2f0000806000e000b300bb
:103bac00201f8800211f8000f00f2c0080806000f7
:103bbc0000d0200001007000201f88000108800048
:103bcc000004200001017000600420007105200039
:103bdc0003102000804978008149780082497800e0
:103bec000080fa00000006000000fa000e0007003a
:103bfc00bbff070013000700c7fc0700d4fb07003e
:103c0c00e1fa0700eef90700fbf8070008f80700d7
:103c1c00b2fd07004cfe07007ef60700defe070033
:103c2c000080fa00000006000000fa0000002300eb
:103c3c00100888000621ef000021a9000080fa007e
:103c4c00000006000000fa002005800000c0a00063
:103c5c0000d0a10000e0a10020058800e005800054
:103c6c000040a0000050a1000060a100e005880009
:103c7c003005800000c0a00000d0a10000e0a10031
:0c3c8c00300588000080fa0000000600ef
:020000040000fa
:020000040001f9
:0457f000ffff0000b7
:020000040000fa
:020000040001f9
:0457f400fffe0000b4
:020000040000fa
:020000040001f9
:0457f8009fb8000056
:020000040000fa
:020000040001f9
:0457fc003f3f00002b
:00000001FF
