:020000040000fa
:080000000002040000000000f2
:020000040000fa
:10000800e6020000e6020000e6020000e602000048
:10001800e6020000e6020000e6020000e602000038
:10002800e6020000e6020000e6020000521c0000a2
:10003800e6020000e6020000e6020000881d00005b
:10004800e6020000e6020000e6020000e602000008
:10005800e6020000e6020000e6020000e6020000f8
:10006800e6020000e6020000e6020000e6020000e8
:10007800e6020000e6020000e6020000e6020000d8
:10008800e6020000e6020000e6020000e6020000c8
:10009800e6020000e6020000e6020000e6020000b8
:1000a800e6020000e6020000e6020000e6020000a8
:1000b800e6020000e6020000e6020000e602000098
:1000c800e6020000e6020000e6020000e602000088
:1000d800e6020000e6020000e6020000e602000078
:1000e800e6020000f60d0000e6020000e60200004d
:1000f800e6020000e6020000e6020000e602000058
:10010800e6020000e6020000e6020000e602000047
:10011800e6020000e6020000e6020000e602000037
:10012800e6020000e6020000e6020000e602000027
:10013800e6020000e6020000e6020000e602000017
:10014800e6020000e6020000e6020000e602000007
:10015800e6020000e6020000e6020000e6020000f7
:10016800e6020000e6020000e6020000e6020000e7
:10017800e6020000e6020000e6020000e6020000d7
:10018800e6020000e6020000e6020000e6020000c7
:10019800e6020000e6020000e6020000e6020000b7
:1001a800e6020000e6020000e6020000e6020000a7
:1001b800e6020000e6020000e6020000e602000097
:1001c800e6020000e6020000e6020000e602000087
:1001d800e6020000e6020000e6020000e602000077
:1001e800e6020000e6020000e6020000e602000067
:0801f800e6020000e60200002f
:020000040000fa
:10020800e6020000e6020000e6020000e602000046
:10021800e6020000e6020000e6020000e602000036
:10022800e6020000e6020000e6020000521c0000a0
:10023800e6020000e6020000e6020000881d000059
:10024800e6020000e6020000e6020000e602000006
:10025800e6020000e6020000e6020000e6020000f6
:10026800e6020000e6020000e6020000e6020000e6
:10027800e6020000e6020000e6020000e6020000d6
:10028800e6020000e6020000e6020000e6020000c6
:10029800e6020000e6020000e6020000e6020000b6
:1002a800e6020000e6020000e6020000e6020000a6
:1002b800e6020000e6020000e6020000e602000096
:1002c800e6020000e6020000e6020000e602000086
:1002d800e6020000e6020000e6020000e602000076
:1002e800e6020000f60d0000e6020000e60200004b
:1002f800e6020000e6020000e6020000e602000056
:10030800e6020000e6020000e6020000e602000045
:10031800e6020000e6020000e6020000e602000035
:10032800e6020000e6020000e6020000e602000025
:10033800e6020000e6020000e6020000e602000015
:10034800e6020000e6020000e6020000e602000005
:10035800e6020000e6020000e6020000e6020000f5
:10036800e6020000e6020000e6020000e6020000e5
:10037800e6020000e6020000e6020000e6020000d5
:10038800e6020000e6020000e6020000e6020000c5
:10039800e6020000e6020000e6020000e6020000b5
:1003a800e6020000e6020000e6020000e6020000a5
:1003b800e6020000e6020000e6020000e602000095
:1003c800e6020000e6020000e6020000e602000085
:1003d800e6020000e6020000e6020000e602000075
:1003e800e6020000e6020000e6020000e602000065
:0803f800e6020000e60200002d
:020000040000fa
:100400006f8720000e7f22000e0188000000000090
:10041000000020000000e000020032000001200087
:10042000200288000c000700e0f9210001002000f4
:100430000f000700000020000000e0000200320072
:100440000000020000000000bc05020000000000e7
:100450000040da000000fe00200020000000e00064
:100460000200320010002000900188000000060009
:10047000a1028800800078000000eb001a0037001d
:10048000e280400054a0b4009101ba00e280400034
:1004900054a0b4009102ba00e280400054a0b4001d
:1004a0000002eb00472bde00f507b200a601880032
:1004b000602ce10008003a000049eb000201e8006e
:1004c000020039003420ec0002f0a0008301e900b2
:1004d000f9ff3e00040037006128e100010032000e
:1004e0000082eb00040007001101ba000200e000e6
:1004f000e3ff3a000000060004d0a300e20f490029
:100500001c003900810278003549ba000201e80078
:10051000020039003420ec0002f0a0008301e90061
:100520000f0032002549ba000201e800020039003c
:100530003420ec0002f0a0008301e9000800320042
:100540000400e0000600320015c9ba000201e8000c
:10055000020039003420ec0002f0a0008301e90021
:100560008180e80054a0b4000300e000e2ff3a00fc
:10057000000006009102ba00055978008301e900e5
:10058000f7ff3200c82ade00055978008301e90030
:10059000f3ff32000400e000f1ff320011d9ba008d
:1005a000eeff370000000000000000000000000027
:1005b000000000000000000000000000000000003b
:1005c0000000000000000000000000000040da0011
:1005d0000000fe0003f0a200889fbe008a9fbe00bc
:1005e0008c1f7800be000700c50033006450e10096
:1005f0004f0032006420e1005200320003826c00a0
:1006000007003b000905d0000306d000820f54000c
:100610000c065d00020039000200320089017800fa
:10062000030678008582550004003d000003fd00ac
:100630008103fd008502ea008b854200840f720071
:1006400002003b0060001000e08018006011b8005c
:100650000005eb007a28e1000a0039000600780066
:10066000c75ddd00f707b200878075002d003700f9
:10067000828171000a017800610560008180d100eb
:100680000080d3008502e900f9ff3b00060440002a
:100690008784480002003b0060041400e0841c00d2
:1006a0000988a300070032008a81710082817100ed
:1006b000610164008904d1000884d3008b05e8003f
:1006c000170037000978a30013003a000b00e00080
:1006d000130034008b05e9000804440089844c00b1
:1006e0000a4474000978a3000d003a000b00e000f2
:1006f000070034008b05e9000804440089844c009d
:1007000001003a000b0020000978a300f7ff320037
:100710000001eb0002003700828171000a017800bd
:10072000340007000cf0a70001f0a0007d003700a6
:100730006420e10002003a00838f6c007d003300ea
:100740000801be000200be00760037001400200041
:10075000af003700f4ff2f00ad0037000001be00ee
:100760004a0007000470a70003f0a1006509b1006a
:10077000160032000d0035006828e1000600350043
:10078000f0ff2f00f1ff27000300e00013003b0003
:1007900001002800000005000000400081804800a2
:1007a0008502e900fcff3a0008003700f88f42009c
:1007b00002003c008000eb00000005008100d10039
:1007c0000080d3008502e800fcff3a000300e0004f
:1007d00002003b0060001000e080180000000600ee
:1007e0004f89de0082017800a40037006011b80054
:1007f000b200370081002000618055000b003d00f1
:100800000b00200061fe2f000100e1001d003400fc
:1008100082817100610164008904d1000884d300e1
:100820000000e800faff3a00710020006100640057
:1008300003007000020060000900320061044400ff
:10084000e0844c000988a500050032008b05e80013
:100850006808e10002003a008904d1000884d3004e
:10086000f20f20000258e10005003d00c75ddd00e9
:10087000f907b200898075000800780000000600c2
:100880000bf827008b00780000000500c70ade0087
:10089000f107b200f50fb20008003200e1cf4200cc
:1008a000020032000170a00024000500810f7000da
:1008b000010032000408050044000500810f7000ab
:1008c00002003a00140005008502e9000000400023
:1008d00081c04800fcff3b000170a000240005001f
:1008e0000004be00e9ff07000003be000405be00cf
:1008f0000200be00e5ff0700844f750000000600ff
:100900000200be006450e100050036006420e100f2
:10091000020036000968a30001003a000800be008a
:100920000160a0004f0678004f05be004f04be00d6
:1009300000000600f0ff2f00f1ff2700f9ff37004d
:10094000889fbe008a9fbe008c1f7800e4ff0700ce
:10095000ebff330003866c006450e100240032009a
:100960006420e100270032006150e10022003200e3
:100970006120e100210032008b854200eb07b100cd
:100980000134b800003ab8000804420089844a00e3
:10099000013ab8000030b8008880400009014a00e0
:1009a000040033000000400081804800020149003b
:1009b0008b05e900c909dd008301700001003200e8
:1009c00013002000c814de004814dd004709de00d3
:1009d0001200b200c808de000884700085ff07001e
:1009e00001f0a1000cf0a70001f0a000cdff37003e
:1009f0006120e100cfff32000801be000200be000e
:100a0000f7ff37006150e100fcff3a00c9ff3700f3
:100a1000889fbe008a9fbe00841f7800b0ff070039
:100a20004f00780011003300f0ff2f00838f6c001f
:100a300006003b00040565000a00a7000800370017
:100a400009f0a6001000200008003700820f5400b3
:100a5000838f5c00030039001000200001003e007d
:100a60000000200009f0a7000000ea004f05be00ca
:100a70004f04be000000e00000000600881f780060
:100a8000030478000300e00007003d006000100050
:100a9000e080180060011900e081190002003b00ad
:100aa00001f02d00030037000400070008f0a70044
:100ab00001f0a0004f04780000000600889fbe00ef
:100ac0008a9fbe00008270000402710004827100df
:100ad000260032000004be000200be006011b80013
:100ae0006b092000950220000182cf000a00390026
:100af0000541b1000082cf00070039000541b10077
:100b00000982cf00040039000541b1000882cf00fe
:100b1000010039000541b1000542520012003200c7
:100b20000a003b0082817100610164008100d100f4
:100b30000080d3008984d3000884d3008b05e800ab
:100b40000442e800f7ff3a000700370008044400b9
:100b500089844c0000004800818048008b05e90032
:100b60000442e900f9ff3a0022ff07004f05be00ea
:080b70004f04be000000060066
:020000040000fa
:100b78000000fa007b0d0700200020006a00070033
:100b88008261a90050002000670007008ca1a9001d
:100b980020002000640007008ce1a900100020005c
:100ba800610007008cc1a900100020005e0007004a
:100bb8001903070001003700000000008040800092
:100bc8000000e000240032001028ef006501070053
:100bd800a086200010407800e14f50001e003a0027
:100be800b0862000104078000080fb008f010700cd
:100bf800100020004c000700e0862000104078001c
:100c08000080fb003f02070010002000460007009c
:100c1800d0862000104078000080fb000c020700fe
:100c28001000200040000700c08620001040780017
:100c38000080fb00d9010700100020003a000700df
:100c4800f0862000104078000080fb005a02070060
:100c5800f102070000003700100c800061006000fe
:100c68000000e0000c003200404180000000e80075
:100c78004041880040418000ea0f500002003a00dd
:100c88001000200040418800a00020002600070036
:100c98004041800036000700100c800064006000ae
:100ca8000000e000c4ff32008cc1a8005000200002
:100cb8001d0007008cc1a900300020001a000700a1
:100cc8008cc1a80020002000170007008cc1a900d3
:100cd80010002000140007008cc1a80040418000cb
:100ce800880007008cc1a800500020000e000700f3
:100cf8008cc1a900300020000b0007008cc1a8009f
:100d080020002000080007008cc1a9001000200066
:100d1800050007008cc1a800100020000200070091
:100d28008cc1a900a5ff37000200fa00000f780067
:100d38000c28ef0000000000604080009e0f50006b
:100d4800fdff34000080fa00000006000200fa00ef
:100d5800000f78000e28ef000000000070408000af
:100d68009e0f5000fdff34000080fa0000000600ce
:100d78000200fa00000f78001e007800e50f50000e
:100d880034003200e50f50000c003c00e20f500028
:100d98001e003200e20f500003003c00e10f50003b
:100da8000f00320055003700e30f50001c003200de
:100db800e40f50001f00320050003700e70f5000ca
:100dc80034003200e70f50002a003500e80f5000c9
:100dd80034003200e90f50003d0032004700370070
:100de8008ce1a90010002000cfff07008ca1a9000a
:100df80010002000ccff07008221a800100020006e
:100e0800c9ff07008261a9003c0037008221a900c0
:100e180010002000c4ff07008261a80037003700d7
:100e28008221a80010002000bfff07008261a800ef
:100e3800320037008221a90010002000baff070005
:100e48008261a90010002000b7ff07008ce1a8000c
:100e58002a0037008221a80010002000b2ff0700f6
:100e68008261a90010002000afff07008ce1a800f4
:100e7800220037008221a90010002000aaff0700e5
:100e88008261a80010002000a7ff07008ce1a800dd
:100e98001a0037008221a80010002000a2ff0700d6
:100ea800160037008221a900100020009eff0700cd
:100eb8008261a900100020009bff07008ce1a900b7
:100ec8001000200098ff07008ca1a8000b00370035
:100ed8008221a8001000200093ff07008261a9006a
:100ee8001000200090ff07008ce1a90010002000ee
:100ef8008dff07008ca1a800000000000080fa0008
:100f0800000006000200fa00000f78001e007800ba
:100f1800e50f500022003200e50f50000c003c00a5
:100f2800e20f500013003200e20f500003003c00b3
:100f3800e10f50000b00320022003700e30f500091
:100f480011003200e40f5000120032001d0037007b
:100f5800e70f500018003200e70f5000130035006b
:100f68001800370019000700100020006eff070066
:100f780014003700a08420000000010010002000a9
:100f880069ff07000f0037001000200066ff070008
:100f98000c0037001000200063ff0700090037002d
:100fa8001000200060ff0700060037001000200036
:100fb8005dff070003003700100020005aff0700fc
:100fc800000000000080fa00000006000800fa0097
:100fd80010002000000f7800000e20001007980075
:100fe8005049200020079800004920003007980049
:100ff8001e009000a01388001000200053ff070077
:1010080006003700a11380001e0078000080400011
:10101800a0138800400120004cff0700ae0090009c
:10102800a0138000808f5000f6ff3e0006003700b6
:10103800a11380001e00780000805000a0138800d3
:101048004001200041ff07009e009000a01380008f
:10105800808f5000f6ff390006003700a11380008a
:101068001e00780000804000a0138800e0012000e6
:1010780036ff0700be009000a0138000808f50004c
:10108800f6ff3e000080fa00000006000000fa00ab
:101098005000200024ff0700000d2000a013880046
:1010a8001000200020ff0700001a2200f01388001b
:1010b800100020001cff0700f00e200040148800dc
:1010c8001000200018ff070000502000901488002e
:1010d8001000200014ff070050482000e01488008a
:1010e8001000200010ff070000482000301588007d
:1010f8000080fa00000006000000fa0050492000b5
:10110800a01388002000200007ff0700002020000f
:10111800f01388002000200003ff07005050200033
:101128004014880020002000fffe07000030200047
:101138009014880020002000fbfe0700505020007b
:10114800f013880020002000f7fe07000050200060
:101158009014880040062000f3fe07000080fa0083
:10116800000006000000fa00000e2000a01388000e
:1011780020002000ecfe0700602f2000901488005b
:1011880020002000e8fe0700f01f2000f013880070
:1011980020002000e4fe07000032200040148800f0
:1011a80020002000e0fe070000322000f013880035
:1011b80050002000dcfe07000080fa000000060056
:1011c8000000fa00000e2000a01388002000200074
:1011d800d5fe07000015200090148800200020008c
:1011e800d1fe0700000e2000f01388002000200028
:1011f800cdfe0700000e200090148800200020007b
:10120800c9fe0700000e20004014880020002000be
:10121800c5fe0700000e2000f013880050002000d3
:10122800c1fe07000080fa00000006000800fa006e
:10123800881f780030079800a01380008000eb001a
:1012480068fd0700008fbe003e009000cf80de00e2
:1012580061fd070072e72b00b30b2400b6fd070001
:101268000200200003362400d9fc070039fd0700de
:10127800200798002e009000cf80de0056fd070062
:1012880018c0b3001e01be002efd07000000e000dc
:10129800010035000044eb000804e00018003200ab
:1012a8000b0037001e00be002afd07000000780072
:1012b800a0138800f0002000a4fe070072e72b00ae
:1012c800b30b24001e00be00c0fc0700008fbe0048
:1012d8002e009000cf80de003ffd070018c0b3004d
:1012e8001e01be0017fd07000000e00001003400e9
:1012f8000044eb000804e000eaff3a00220037004f
:101308002e009000cf80de0033fd070018c0b30028
:101318001e01be000dfd07000000e00001003c00ba
:101328000044eb000804e000170032000b0037000f
:101338001e00be0007fd070000007800a01388000b
:10134800f000200081fe070072e72b00b30b240099
:101358001e00be009efc0700008fbe002e009000fd
:10136800cf80de001cfd070018c0b3001e01be00c0
:10137800f6fc07000000e00001003d000044eb001f
:101388000804e000eaff3a002e009000a01388004d
:101398004f0478000080fa00000006000800fa00f8
:1013a80030079800f0138000000f78003e0090008e
:1013b8006600b90000007800f00eb0001007980031
:1013c8001e0090001e005000200798001e0090008c
:1013d8009e007800808f50000c0034000600370013
:1013e8001e007800f0138800a000200057fe0700b8
:1013f8009e007800668f50001e0090009e007800c6
:10140800808f5000f6ff3d000f0037001e0090004f
:101418009e007800808f50000b003d0006003700ca
:101428001e007800f0138800a000200047fe070087
:101438009e007800668f40001e0090009e00780095
:10144800808f5000f6ff34000080fa00000006008c
:101458000800fa003007980040148000000f780058
:101468003e0090006600b90000007800f00eb00061
:10147800100798001e0090001e00500020079800da
:101488001e0090009e007800808f50000c003400f1
:10149800060037001e007800401488004000200035
:1014a8002afe07009e007800668f50001e009000fc
:1014b8009e007800808f5000f6ff3d000f00370037
:1014c8001e0090009e007800808f50000b003d00a9
:1014d800060037001e0078004014880040002000f5
:1014e8001afe07009e007800668f40001e009000dc
:1014f8009e007800808f5000f6ff34000080fa00cc
:10150800000006000800fa003007980090148000d8
:10151800000f78003e0090006600b90000007800d7
:10152800f00eb000100798001e0090001e0050003a
:10153800200798001e0090009e007800808f5000c1
:101548000c003400060037001e0078009014880054
:1015580030002000fdfd07009e007800668f5000d7
:101568001e0090009e007800808f5000f6ff3d001e
:101578000f0037001e0090009e007800808f5000fa
:101588000b003d00060037001e007800901488000c
:1015980030002000edfd07009e007800668f4000b7
:1015a8001e0090009e007800808f5000f6ff3400e7
:1015b8000080fa00000006000a00fa0040079800c0
:1015c800e0148000000f78004e0090004005b00045
:1015d8004200dd00100798001e0090001e00500019
:1015e80020079800ae009000a000200000017800bd
:1015f800110009008200d800300798001e009000f2
:101608009e007800808f50000c00340006003700e0
:101618003e0090001e0f40001e007800e014880075
:1016280030002000c9fd07001e0090009e007800d1
:10163800808f5000f6ff3d000f0037001e0090001d
:101648009e007800808f50000b003d000600370098
:101658003e0090001e0f40001e007800e014880035
:1016680030002000b9fd07001e0090009e007800a1
:10167800808f5000f6ff34000080fa00000006005a
:101688000000fa0005003700301580000000e9006e
:101698003015880010002000acfd070031158000cf
:1016a800f0222000808f5000f7ff3e0050232000da
:1016b800301588000080fa00000006000000fa00db
:1016c80050492000301588000080fa00000006000c
:1016d8000000fa000000eb00d4fe070040062000de
:1016e80091fd0700400b2000d0fe070040062000b7
:1016f8008dfd0700a0052000ccfe07000080fa0041
:10170800000006000000fa000000eb0023ff0700bd
:101718004006200084fd0700400b20001fff070043
:101728004006200080fd0700a00520001bff0700e1
:101738000080fa00000006000000fa000000eb003c
:1017480043ff07004006200077fd0700400b2000fc
:101758003fff07004006200073fd0700a00520009a
:101768003bff07000080fa00000006000000fa00b6
:101778000000eb0063ff0700400620006afd070039
:10178800400b20005fff07004006200066fd0700b1
:10179800a00520005bff07000080fa00000006009b
:1017a8000000fa0000112000e0148800050037004e
:1017b800e01480000000e800e014880050002000d9
:1017c80062fd0700e114800050462000808f500021
:1017d800f7ff36000080fa00000006000000fa005b
:1017e80000402000301588000500370030158000c3
:1017f8000000e900301588008000200053fd070034
:101808003115800040272000808f5000f7ff3e00f0
:101818000080fa00000006000200fa000000eb0059
:10182800000f780005003700a08620001e00400049
:1018380011c0b300014878001e0fe8001e007800b0
:10184800e50f5000f8ff34000000eb00000f7800af
:101858000080fa00000006003200fa0040179800e5
:10186800511798006217980073179800041f980082
:101878000000eb00000f78000000eb001007980054
:101888000000eb00200798000000eb0030079800ec
:10189800001a220040079800000e20005007980008
:1018a800000e200060079800000e200070079800c6
:1018b800f0138000000f980040148000100f98006b
:1018c80090148000200f9800e0148000300f9800da
:1018d800de1090001e0078000088b90080007800b3
:1018e8004e00900000804000400f9800ee109000dd
:1018f8001e0090000088b900800078005e0090000b
:1019080000804000500f9800fe1090002e009000bc
:101918000088b900800078006e00900000804000c8
:10192800600f98008e1890003e0090000088b90063
:10193800800078007e00900000804000700f9800c2
:10194800ce0890000e089000008050000017980004
:10195800de0890001e0890000080500010179800c4
:10196800ee0890002e089000008050002017980084
:10197800fe0890003e089000008050003017980044
:10198800ce089000f0138000808f500005003200d0
:1019980042d320008e1090004e08900002000100f3
:1019a8001a003700de08900040148000808f500035
:1019b80005003200a2d520009e1090005e0890001d
:1019c8000200010011003700ee089000901480001a
:1019d800808f50000500320002d82000ae10900021
:1019e8006e0890000200010008003700fe08900011
:1019f800e0148000808f50000400320062da20007a
:101a0800be1090007e089000020001000080fa00dd
:101a1800000006000600fa00100798002107980049
:101a280010002000000f78002e0090000000e00059
:101a380005003d00a11380001e00780000805000c2
:101a4800a013880004003700a11380001e0078004e
:101a580000804000a01388000080fa000000060003
:101a68000600fa00100798002107980010002000cf
:101a7800000f78002e0090000000e00005003d00f7
:101a8800f11380001e00780000805000f0138800d9
:101a980004003700f11380001e0078000080400029
:101aa800f01388000080fa00000006000600fa0023
:101ab800100798002107980010002000000f7800f8
:101ac8002e0090000000e00005003d004114800059
:101ad8001e00780000805000401488000400370081
:101ae800411480001e0078000080400040148800e7
:101af8000080fa00000006000600fa0010079800af
:101b08002107980010002000000f78002e00900098
:101b18000000e00005003d00911480001e007800e0
:101b28000080500090148800040037009114800051
:101b38001e00780000804000901488000080fa00a1
:101b4800000006000600fa00100798002107980018
:101b580010002000000f78002e0090000000e00028
:101b680005003d00e11480001e0078000080500050
:101b7800e014880004003700e11480001e0078009b
:101b880000804000e01488000080fa000000060091
:101b98000000fa000000280080178800f422ef00f7
:101ba8000001200006010700f0072000f8000700e8
:101bb8000028ef000000eb00cd0007000000eb005c
:101bc800d70007008a20a9009a20a8000080fa0000
:101bd800000006000000fa00edff07000080fa0090
:101be800000006003600f800809fbe00829fbe00fd
:101bf800849fbe00869fbe000200fa00004080005d
:101c0800e20f50009a003200e20f50000300390042
:101c1800e30f500089003200a700370081178000c9
:101c280000402000008060000000e00005003a004d
:101c3800a117800000022000008060000000e00082
:101c48000a00320081178000000820000080600030
:101c58000000e00021003200a117800000202000d1
:101c6800008060000000e0001c003200a017800027
:101c7800640060000000e0000b003a001000200043
:101c88000f01070018e8b700100020000040880086
:101c980018c8bf000004e000380032005017800068
:101ca800004f7800360037000000eb000401070001
:101cb800204080000000e000050032002040800045
:101cc800104078000080fb0060178800f182a800af
:101cd800200020000040880029003700811780007c
:101ce80000402000008060000000e0002400320076
:101cf800a117800000022000008060000000e000c2
:101d08001f003a00a0178000640060000000e00097
:101d180004003a000a68ef00300020000040880004
:101d2800130037000ac8bf000004e0000d003200ad
:101d38000000eb00e2000700204080000000e00007
:101d48000500320020408000104078000080fb0031
:101d580060178800f182a800200020000040880059
:101d6800030037000a68ef003000200000408800b8
:101d780050178000004f7800010037000000000075
:101d880000408000e10f50004c003a00a11780008d
:101d980000022000008060000000e00049003200de
:101da800a117800000042000008060000000e0000f
:101db8001e003a00104080000000e00017003200ca
:101dc80051178000f00f2000808f50000f00320064
:101dd800a04080005117800001417800a1862000b2
:101de80082707800a04080000000e800a0408800d1
:101df800a0408000e50f50000400340080408000bf
:101e08000000e800804088001428ef00104080009f
:101e18005117800081407800014878002000200098
:101e2800a700070018e8b7002900370050178000fe
:101e3800004f7800f4c2a9002500370030002000c8
:101e48009f00070018e8b70010c0b3000ae8b70001
:101e580018c8bf000004e0000200320050178000dc
:101e6800004f78001000200000408800180037005c
:101e7800a117800000002800008060000000e0003a
:101e88000b003a000000eb008d00070020408000a6
:101e98000000e0000d003200204080001040780073
:101ea8000080fb0060178800f182a8000800370056
:101eb8000028ef0006003700ffff37000000000091
:101ec8000300370000000000010037000000000098
:101ed8008a20a9000080fa004f03be004f02be000e
:101ee8004f01be004f00be003600f900004006005a
:101ef8000200fa00000f78009e0078002140880058
:101f08000080fa00000006000200fa00000f7800c6
:101f18001e007800f6ff07000080fa0000000600a7
:101f28000200fa00000f78009e0078001140880037
:101f38000080fa00000006000200fa00000f780096
:101f48001e007800f6ff07000080fa000000060077
:101f58000000fa00204080000080fa00000006001f
:101f68000000fa00faff07000080fa0000000600ef
:101f78000000fa00104080000080fa00000006000f
:101f88000000fa00faff07000080fa0000000600cf
:101f98000200fa00000f78009e007800c117880040
:101fa8000080fa00000006000200fa00000f780026
:101fb8001e007800f6ff07000080fa000000060007
:101fc8000200fa00000f7800f00720009e00780059
:101fd800808f500002003600f142a800010037004f
:101fe800f142a9000028ef009e007800b117880090
:101ff8000080fa00000006000200fa00000f7800d6
:102008001e007800eeff07000080fa0000000600be
:102018000000fa00204080000000e00006003200c6
:1020280020408000104078000080fb006017880086
:10203800f182a80001003700000000000080fa00cb
:10204800000006000000fa00104080000000e000d8
:102058001800320051178000f00f2000808f5000c8
:102068000f003200a0408000511780000141780025
:10207800a186200082707800a04080000000e8005f
:10208800a0408800a0408000e50f50000400340004
:10209800804080000000e800804088001428ef009d
:1020a8001040800051178000814078000148780076
:1020b80001003700000000000080fa000000060060
:1020c8000200fa00000f78001e007800e10f5000af
:1020d8000d003200e10f500003003900e20f5000fc
:1020e8000f0032002e00370031408000a08220000f
:1020f800008040007eff0700304080000000e800bc
:1021080030408800260037000828ef0010c0b300d0
:1021180017e8b7006081200081ff07002000370022
:1021280017c8bf000004e0001600320040408000dd
:102138000000e00008003a0016c8bf000080fb005d
:102148004800dd0030408800404080000000e80082
:10215800404088001200370040408000e10f5000e6
:102168000e003a0016c8bf008080fb003040800097
:1021780001007000304088000828ef001768ef0061
:10218800070037003040800062812000124178004b
:10219800a182200082707800010037000000000052
:1021a80010c0b3000080fa00000006000000fa002a
:1021b8006000210000158800a222ef0000712200b3
:1021c800201588000048200030158800a822ef005c
:1021d8000015800000407800674060000080fb0028
:1021e800e04088000080fa00000006000000fa00c5
:1021f800eeff07000080fa00000006000000fa0069
:102208004104800000402000008060000000e000e1
:10221800010032008940a9000080fa000000060091
:102228000000fa00f5ff07000080fa000000060031
:102238000000fa00e040800000407800674060003d
:102248000080fb00670060000215800081ff2f00fe
:102258008100610001007000001588000080fa000c
:10226800000006000000fa00f1ff07000080fa00f5
:10227800000006000000fa00001580000000a10020
:102288000010a1000020a100001588000080fa00bd
:10229800000006000000fa00f6ff07000080fa00c0
:1022a800000006000200fa00000f78009e00780087
:1022b800311588000080fa00000006000200fa00cc
:1022c800000f78001e007800f6ff07000080fa0073
:1022d800000006000400fa00000f780011079800bb
:1022e8009e007800311588009e0090002115880016
:1022f8000080fa00000006000400fa00000f7800d1
:10230800110798009e0090001e007800f1ff07005a
:102318000080fa00000006000400fa00000f7800b0
:10232800110798009e007800311588009e009000e3
:10233800211588000080fa00000006000400fa0059
:10234800000f7800110798009e0090001e0078008a
:10235800f1ff07000080fa00000006000400fa0000
:10236800000f7800110798009e007800311588004a
:102378009e009000211588000080fa0000000600e9
:102388000400fa00000f7800110798009e009000e2
:102398001e007800f1ff07000080fa000000060028
:1023a8000000fa00400480004a00de00614060003e
:1023b8000080fb0000f0a7000000ea000000ea002f
:1023c8004f00de00004078000080fa0000000600a0
:1023d8000000fa00f2ff07000080fa000000060083
:1023e8000400fa00100798001e009000e10f50004a
:1023f8000f003200e10f500003003900e20f5000d7
:10240800150032001e003700001580004400de0071
:10241800614060000080fb0000f0a7000000ea00b7
:102428000000ea004f00de00004f7800140037007b
:10243800001580004500de00614060000080fb0060
:1024480000f0a7000000ea000000ea004f00de00ec
:10245800004f78000a003700001580004600de00b3
:10246800614060000080fb0000f0a7000000ea0067
:102478000000ea004f00de00004f78000000000076
:102488001e4078000080fa00000006000200fa00f2
:10249800000f78001e007800d1ff07000080fa00c6
:1024a800000006000200fa00000f78001e00780005
:1024b800e10f500007003200e10f5000030039001f
:1024c800e20f50000500320006003700a082a90084
:1024d80004003700a0a2a90002003700a0c2a9008a
:1024e800000000000080fa00000006000200fa0068
:1024f800000f78001e007800eaff07000080fa004d
:10250800000006000000fa00a2c2a8000080fa003d
:10251800000006000000fa00101580004600de00ea
:10252800614060000080fb0000f0a7000000ea00a6
:102538000000ea004f00de00004078000080fa004a
:10254800000006000000fa00f2ff07000080fa0011
:10255800000006000000fa00a2c2a9000080fa00ec
:10256800000006000000fa00faff07000080fa00e9
:10257800000006000000fa0060002100b014880086
:102588009822ef0000712200d014880050482000e3
:10259800e01488009e22ef00b0148000004078000c
:1025a800674060000080fb00f04088000080fa006f
:1025b800000006000000fa00eeff07000080fa00a5
:1025c800000006000000fa004104800000202000fe
:1025d800008060000000e000010032008920a900ae
:1025e8000080fa00000006000000fa00f5ff07006e
:1025f8000080fa00000006000000fa00f0408000a9
:1026080000407800674060000080fb0067006000c1
:10261800b214800081ff2f0081006100010070006a
:10262800b01488000080fa00000006000000fa00dc
:10263800f1ff07000080fa00000006000000fa0021
:10264800b01480000000a1000010a1000020a1002b
:10265800b01488000080fa00000006000000fa00ac
:10266800f6ff07000080fa00000006000200fa00ea
:10267800000f78009e007800e11488000080fa00be
:10268800000006000200fa00000f78001e00780023
:10269800f6ff07000080fa00000006000400fa00b8
:1026a800000f7800110798009e007800e114880058
:1026b8009e009000d11488000080fa0000000600f7
:1026c8000400fa00000f7800110798009e0090009f
:1026d8001e007800f1ff07000080fa0000000600e5
:1026e8000400fa00000f7800110798009e00780097
:1026f800e11488009e009000d11488000080fa0040
:10270800000006000400fa00000f78001107980086
:102718009e0090001e007800f1ff07000080fa007c
:10272800000006000400fa00000f78001107980066
:102738009e007800e11488009e009000d114880063
:102748000080fa00000006000400fa00000f78007c
:10275800110798009e0090001e007800f1ff070006
:102768000080fa00000006000000fa004004800023
:102778004900de00614060000080fb0000f0a70017
:102788000000ea000000ea004f00de000040780088
:102798000080fa00000006000000fa00f2ff0700bf
:1027a8000080fa00000006000400fa0010079800f4
:1027b8001e009000e10f50000f003200e10f5000a2
:1027c80003003900e20f5000150032001e003700e8
:1027d800b01480004400de00614060000080fb000f
:1027e80000f0a7000000ea000000ea004f00de0049
:1027f800004f780014003700b01480004500de0058
:10280800614060000080fb0000f0a7000000ea00c3
:102818000000ea004f00de00004f78000a00370091
:10282800b01480004600de00614060000080fb00bc
:1028380000f0a7000000ea000000ea004f00de00f8
:10284800004f7800000000001e4078000080fa0069
:10285800000006000200fa00000f78001e00780051
:10286800d1ff07000080fa00000006000200fa000d
:10287800000f78001e007800e10f500007003200ba
:10288800e10f500003003900e20f5000050032004c
:10289800060037009682a9000400370096a2a90016
:1028a8000200370096c2a900000000000080fa006c
:1028b800000006000200fa00000f78001e007800f1
:1028c800eaff07000080fa00000006000000fa0096
:1028d80098c2a8000080fa00000006000000fa0074
:1028e800c01480004600de00614060000080fb00ec
:1028f80000f0a7000000ea000000ea004f00de0038
:10290800004078000080fa00000006000000fa008d
:10291800f2ff07000080fa00000006000000fa003d
:1029280098c2a9000080fa00000006000000fa0022
:10293800faff07000080fa00000006000000fa0015
:1029480060002100601488008e22ef0000712200d0
:102958008014880000502000901488009422ef0012
:102968006014800000407800674060000080fb0031
:10297800004188000080fa00000006000000fa000c
:10298800eeff07000080fa00000006000000fa00d1
:102998003104800000402000008060000000e0005a
:1029a800010032008740a9000080fa0000000600fc
:1029b8000000fa00f5ff07000080fa00000006009a
:1029c8000000fa0000418000004078006740600085
:1029d8000080fb00670060006214800081ff2f0008
:1029e8008100610001007000601488000080fa0016
:1029f800000006000000fa00f1ff07000080fa005e
:102a0800000006000000fa00601480000000a10029
:102a18000010a1000020a100601488000080fa00c6
:102a2800000006000000fa00f6ff07000080fa0028
:102a3800000006000200fa00000f78009e007800ef
:102a4800911488000080fa00000006000200fa00d5
:102a5800000f78001e007800f6ff07000080fa00db
:102a6800000006000400fa00000f78001107980023
:102a78009e007800911488009e00900081148800c0
:102a88000080fa00000006000400fa00000f780039
:102a9800110798009e0090001e007800f1ff0700c3
:102aa8000080fa00000006000400fa00000f780019
:102ab800110798009e007800911488009e009000ed
:102ac800811488000080fa00000006000400fa0063
:102ad800000f7800110798009e0090001e007800f3
:102ae800f1ff07000080fa00000006000400fa0069
:102af800000f7800110798009e0078009114880054
:102b08009e009000811488000080fa0000000600f2
:102b18000400fa00000f7800110798009e0090004a
:102b28001e007800f1ff07000080fa000000060090
:102b38000000fa00300480004a00de0061406000b6
:102b48000080fb0000f0a7000000ea000000ea0097
:102b58004f00de00004078000080fa000000060008
:102b68000000fa00f2ff07000080fa0000000600eb
:102b78000400fa00100798001e009000e10f5000b2
:102b88000f003200e10f500003003900e20f50003f
:102b9800150032001e003700601480004400de007b
:102ba800614060000080fb0000f0a7000000ea0020
:102bb8000000ea004f00de00004f780014003700e4
:102bc800601480004500de00614060000080fb006a
:102bd80000f0a7000000ea000000ea004f00de0055
:102be800004f78000a003700601480004600de00bd
:102bf800614060000080fb0000f0a7000000ea00d0
:102c08000000ea004f00de00004f780000000000de
:102c18001e4078000080fa00000006000200fa005a
:102c2800000f78001e007800d1ff07000080fa002e
:102c3800000006000200fa00000f78001e0078006d
:102c4800e10f500007003200e10f50000300390087
:102c5800e20f500005003200060037008c82a90000
:102c6800040037008ca2a900020037008cc2a9001a
:102c7800000000000080fa00000006000200fa00d0
:102c8800000f78001e007800eaff07000080fa00b5
:102c9800000006000000fa008ec2a8000080fa00ba
:102ca800000006000000fa00701480004600de00f4
:102cb800614060000080fb0000f0a7000000ea000f
:102cc8000000ea004f00de00004078000080fa00b3
:102cd800000006000000fa00f2ff07000080fa007a
:102ce800000006000000fa008ec2a9000080fa0069
:102cf800000006000000fa00faff07000080fa0052
:102d0800000006000000fa0060002100101488008e
:102d18008422ef000071220030148800f00e200099
:102d2800401488008a22ef001014800000407800c8
:102d3800674060000080fb00104188000080fa00b6
:102d4800000006000000fa00eeff07000080fa000d
:102d5800000006000000fa00310480000020200076
:102d6800008060000000e000010032008720a90018
:102d78000080fa00000006000000fa00f5ff0700d6
:102d88000080fa00000006000000fa0010418000f0
:102d980000407800674060000080fb00670060002a
:102da8001214800081ff2f00810061000100700073
:102db800101488000080fa00000006000000fa00e5
:102dc800f1ff07000080fa00000006000000fa008a
:102dd800101480000000a1000010a1000020a10034
:102de800101488000080fa00000006000000fa00b5
:102df800f6ff07000080fa00000006000200fa0053
:102e0800000f78009e007800411488000080fa00c6
:102e1800000006000200fa00000f78001e0078008b
:102e2800f6ff07000080fa00000006000400fa0020
:102e3800000f7800110798009e0078004114880060
:102e48009e009000311488000080fa0000000600ff
:102e58000400fa00000f7800110798009e00900007
:102e68001e007800f1ff07000080fa00000006004d
:102e78000400fa00000f7800110798009e007800ff
:102e8800411488009e009000311488000080fa00e8
:102e9800000006000400fa00000f780011079800ef
:102ea8009e0090001e007800f1ff07000080fa00e5
:102eb800000006000400fa00000f780011079800cf
:102ec8009e007800411488009e009000311488000c
:102ed8000080fa00000006000400fa00000f7800e5
:102ee800110798009e0090001e007800f1ff07006f
:102ef8000080fa00000006000000fa00300480009c
:102f08004900de00614060000080fb0000f0a7007f
:102f18000000ea000000ea004f00de0000407800f0
:102f28000080fa00000006000000fa00f2ff070027
:102f38000080fa00000006000400fa00100798005c
:102f48001e009000e10f50000f003200e10f50000a
:102f580003003900e20f5000150032001e00370050
:102f6800101480004400de00614060000080fb0017
:102f780000f0a7000000ea000000ea004f00de00b1
:102f8800004f780014003700101480004500de0060
:102f9800614060000080fb0000f0a7000000ea002c
:102fa8000000ea004f00de00004f78000a003700fa
:102fb800101480004600de00614060000080fb00c5
:102fc80000f0a7000000ea000000ea004f00de0061
:102fd800004f7800000000001e4078000080fa00d2
:102fe800000006000200fa00000f78001e007800ba
:102ff800d1ff07000080fa00000006000200fa0076
:10300800000f78001e007800e10f50000700320022
:10301800e10f500003003900e20f500005003200b4
:10302800060037008282a9000400370082a2a900a6
:103038000200370082c2a900000000000080fa00e8
:10304800000006000200fa00000f78001e00780059
:10305800eaff07000080fa00000006000000fa00fe
:1030680084c2a8000080fa00000006000000fa00f0
:10307800201480004600de00614060000080fb00f4
:1030880000f0a7000000ea000000ea004f00de00a0
:10309800004078000080fa00000006000000fa00f6
:1030a800f2ff07000080fa00000006000000fa00a6
:1030b80084c2a9000080fa00000006000000fa009f
:1030c800faff07000080fa00000006000000fa007e
:1030d80060402000c01388007a22ef0000e224003c
:1030e800e0138800001a2200f01388008022ef0005
:1030f800c013800000407800674060000080fb003b
:10310800204188000080fa00000006000000fa0054
:10311800eeff07000080fa00000006000000fa0039
:103128002104800000042000008060000000e0000e
:103138000100320084c0a9000080fa0000000600e7
:103148000000fa00f5ff07000080fa000000060002
:103158000000fa00204180000040780067406000cd
:103168000080fb0067006000c213800081ff2f0011
:103178008100610001007000c01388000080fa001f
:10318800000006000000fa00f1ff07000080fa00c6
:10319800000006000000fa00c01380000000a10033
:1031a8000010a1000020a100c01388000080fa00d0
:1031b800000006000000fa00f6ff07000080fa0091
:1031c800000006000200fa00000f78009e00780058
:1031d800f11388000080fa00000006000200fa00df
:1031e800000f78001e007800f6ff07000080fa0044
:1031f800000006000400fa00000f7800110798008c
:103208009e007800f11388009e009000e11388006a
:103218000080fa00000006000400fa00000f7800a1
:10322800110798009e0090001e007800f1ff07002b
:103238000080fa00000006000400fa00000f780081
:10324800110798009e007800f11388009e009000f6
:10325800e11388000080fa00000006000400fa006c
:10326800000f7800110798009e0090001e0078005b
:10327800f1ff07000080fa00000006000400fa00d1
:10328800000f7800110798009e007800f11388005d
:103298009e009000e11388000080fa0000000600fc
:1032a8000400fa00000f7800110798009e009000b3
:1032b8001e007800f1ff07000080fa0000000600f9
:1032c8000000fa00200480004600de006140600033
:1032d8000080fb0000f0a7000000ea000000ea0000
:1032e8004f00de00004078000080fa000000060071
:1032f8000000fa00f2ff07000080fa000000060054
:103308000400fa00100798001e009000e10f50001a
:103318000f003200e10f500003003900e20f5000a7
:10332800150032001e003700c01380004400de0084
:10333800614060000080fb0000f0a7000000ea0088
:103348000000ea004f00de00004f7800140037004c
:10335800c01380004500de00614060000080fb0073
:1033680000f0a7000000ea000000ea004f00de00bd
:10337800004f78000a003700c01380004600de00c6
:10338800614060000080fb0000f0a7000000ea0038
:103398000000ea004f00de00004f78000000000047
:1033a8001e4078000080fa00000006000200fa00c3
:1033b800000f78001e007800d1ff07000080fa0097
:1033c800000006000200fa00000f78001e007800d6
:1033d800e10f500007003200e10f500003003900f0
:1033e800e20f500005003200060037007882a9007d
:1033f8000400370078a2a9000200370078c2a900ab
:10340800000000000080fa00000006000200fa0038
:10341800000f78001e007800eaff07000080fa001d
:10342800000006000000fa007ac2a8000080fa0036
:10343800000006000000fa00d01380004600de00fd
:10344800614060000080fb0000f0a7000000ea0077
:103458000000ea004f00de00004078000080fa001b
:10346800000006000000fa00f2ff07000080fa00e2
:10347800000006000000fa007ac2a9000080fa00e5
:10348800000006000000fa00faff07000080fa00ba
:10349800000006000000fa00600021007013880098
:1034a8007022ef000071220090138800000e2000a7
:1034b800a01388007622ef00701380000040780087
:1034c800674060000080fb00304188000080fa00ff
:1034d800000006000000fa00eeff07000080fa0076
:1034e800000006000000fa0020048000640060006c
:1034f8000000e000010032008440a9000080fa00ca
:10350800000006000000fa00f6ff07000080fa003d
:10351800000006000000fa003041800000407800fa
:10352800674060000080fb00670060007213800045
:1035380081ff2f0081006100010070007013880076
:103548000080fa00000006000000fa00f1ff070002
:103558000080fa00000006000000fa0070138000e6
:103568000000a1000010a1000020a1007013880035
:103578000080fa00000006000000fa00f6ff0700cd
:103588000080fa00000006000200fa00000f780030
:103598009e007800a11388000080fa000000060051
:1035a8000200fa00000f78001e007800f6ff0700fe
:1035b8000080fa00000006000400fa00000f7800fe
:1035c800110798009e007800a11388009e009000c3
:1035d800911388000080fa00000006000400fa0039
:1035e800000f7800110798009e0090001e007800d8
:1035f800f1ff07000080fa00000006000400fa004e
:10360800000f7800110798009e007800a113880029
:103618009e009000911388000080fa0000000600c8
:103628000400fa00000f7800110798009e0090002f
:103638001e007800f1ff07000080fa000000060075
:103648000400fa00000f7800110798009e00780027
:10365800a11388009e009000911388000080fa0052
:10366800000006000400fa00000f78001107980017
:103678009e0090001e007800f1ff07000080fa000d
:10368800000006000000fa00200480004200de006e
:10369800614060000080fb0000f0a7000000ea0025
:1036a8000000ea004f00de00004078000080fa00c9
:1036b800000006000000fa00f2ff07000080fa0090
:1036c800000006000400fa00100798001e00900091
:1036d800e10f50000f003200e10f500003003900e5
:1036e800e20f5000150032001e00370070138000f2
:1036f8004400de00614060000080fb0000f0a7008d
:103708000000ea000000ea004f00de00004f7800e9
:1037180014003700701380004500de00614060002f
:103728000080fb0000f0a7000000ea000000ea00ab
:103738004f00de00004f78000a0037007013800049
:103748004600de00614060000080fb0000f0a7003a
:103758000000ea000000ea004f00de00004f780099
:10376800000000001e4078000080fa0000000600fb
:103778000200fa00000f78001e007800d1ff070051
:103788000080fa00000006000200fa00000f78002e
:103798001e007800e10f500007003200e10f5000d2
:1037a80003003900e20f5000050032000600370020
:1037b8006e82a900040037006ea2a900020037003b
:1037c8006ec2a900000000000080fa000000060098
:1037d8000200fa00000f78001e007800eaff0700d8
:1037e8000080fa00000006000000fa0070c2a8007d
:1037f8000080fa00000006000000fa008013800034
:103808004600de00614060000080fb0000f0a70079
:103818000000ea000000ea004f00de0000407800e7
:103828000080fa00000006000000fa00f2ff07001e
:103838000080fa00000006000000fa0070c2a9002b
:103848000080fa00000006000000fa00faff0700f6
:103858000080fa00000006000000fa0000012800bd
:10386800801288004c22ef0000712200701288003c
:103878008460a9009460a800008720008040eb00c5
:10388800014878000080fa00000006000000fa00f5
:10389800f1ff07000080fa00000006003600f8007b
:1038a800809fbe00829fbe00849fbe00869fbe0090
:1038b8000000fa00d04080000000e800d0408800f6
:1038c800d04080000000e000020032003f00070006
:1038d8001a28ef0010872000104078008040e80088
:1038e80010872000014878000087200011c0b3002d
:1038f800014878008460a9000080fa004f03be00e8
:103908004f02be004f01be004f00be003600f90056
:10391800004006000200fa00000f78009e007800c0
:1039280071128800008720008040eb000148780071
:103938000080fa00000006000200fa00000f78007c
:103948001e007800f3ff07000080fa000000060060
:103958000000fa00701280000080fa0000000600e3
:103968000000fa00faff07000080fa0000000600d5
:103978000200fa00000f78009e00780061128800ab
:10398800008720008040eb00014878000080fa00a2
:10399800000006000200fa00000f78001e00780000
:1039a800f3ff07000080fa00000006000000fa009c
:1039b800601280000080fa00000006000000fa0093
:1039c800faff07000080fa00000006000000fa0075
:1039d800604080000000e800604088000080fa0035
:1039e800000006000000fa00008720008040eb007d
:1039f800014878009460a80051e2a8000080fa000d
:103a0800000006000000fa00f6ff07000080fa0038
:103a1800000006000000fa0051e2a9009460a90025
:103a28000080fa00000006000000fa00f9ff070015
:103a38000080fa00000006000200fa00008720005b
:103a4800104f78001e4078000004e00003003200a8
:103a5800008720008040eb00014878001e40780075
:103a68000080fa00000006000000fa00f2ff0700dc
:103a78000080fa00000006000000fa00108720000d
:103a8800104078000080fa00000006000000fa00ec
:103a9800f9ff07000080fa00000006000000fa00a5
:103aa800108720008040eb00014878000080fa0071
:103ab800000006000000fa00f8ff07000080fa0086
:103ac800000006000000fa0000002800e01288004c
:103ad8005222ef0000fa2000c012880084e0a900fa
:103ae80094e0a800208720008040eb00014878007f
:103af8000080fa00000006000000fa00f1ff07004d
:103b08000080fa00000006003600f800809fbe0022
:103b1800829fbe00849fbe00869fbe000000fa0000
:103b28003e00070030872000104078008040e80001
:103b380030872000014878002087200011c0b3009a
:103b48000148780084e0a9000080fa004f03be0015
:103b58004f02be004f01be004f00be003600f90004
:103b6800004006000200fa00000f78009e0078006e
:103b7800c1128800208720008040eb0001487800af
:103b88000080fa00000006000200fa00000f78002a
:103b98001e007800f3ff07000080fa00000006000e
:103ba8000000fa00c01280000080fa000000060041
:103bb8000000fa00faff07000080fa000000060083
:103bc8000200fa00000f78009e0078009112880029
:103bd800208720008040eb00014878000080fa0030
:103be800000006000200fa00000f78001e007800ae
:103bf800f3ff07000080fa00000006000000fa004a
:103c0800901280000080fa00000006000000fa0010
:103c1800faff07000080fa00000006000000fa0022
:103c2800704080000000e800704088000080fa00c2
:103c3800000006000000fa00208720008040eb000a
:103c48000148780094e0a8005de2a8000080fa002e
:103c5800000006000000fa00f6ff07000080fa00e6
:103c6800000006000000fa005de2a90094e0a90047
:103c78000080fa00000006000000fa00f9ff0700c3
:103c88000080fa00000006000200fa0020872000e9
:103c9800104f78001e4078000004e0000300320056
:103ca800208720008040eb00014878001e40780003
:103cb8000080fa00000006000000fa00f2ff07008a
:103cc8000080fa00000006000000fa00308720009b
:103cd800104078000080fa00000006000000fa009a
:103ce800f9ff07000080fa00000006000000fa0053
:103cf800308720008040eb00014878000080fa00ff
:103d0800000006000000fa00f8ff07000080fa0033
:103d1800000006000000fa0000012800f0128800e8
:103d28005622ef0000e22400d012880040872000cd
:103d38008040eb00014878000080fa00000006008f
:103d48000000fa00f3ff07000080fa0000000600f8
:103d58000000fa00210480000010200000806000ac
:103d68000000e00009003200508720001040780071
:103d78008040e800508720000148780040872000f4
:103d880011c0b300014878008500a9000080fa003e
:103d9800000006000000fa00edff07000080fa00ae
:103da800000006000200fa00000f78009e0078006c
:103db800d1128800408720008040eb00014878003d
:103dc8000080fa00000006000200fa00000f7800e8
:103dd8001e007800f3ff07000080fa0000000600cc
:103de8000000fa00d01280000080fa0000000600ef
:103df8000000fa00faff07000080fa000000060041
:103e08000200fa00000f78009e007800b1128800c6
:103e1800408720008040eb00014878000080fa00cd
:103e2800000006000200fa00000f78001e0078006b
:103e3800f3ff07000080fa00000006000000fa0007
:103e4800b01280000080fa00000006000000fa00ae
:103e5800faff07000080fa00000006000000fa00e0
:103e6800408720008040eb00014878005fe2a8000e
:103e78000080fa00000006000000fa00f7ff0700c3
:103e88000080fa00000006000000fa005fe2a900c6
:103e98000080fa00000006000000fa00faff0700a0
:103ea8000080fa00000006000200fa0040872000a7
:103eb800104f78001e4078000004e0000300320034
:103ec800408720008040eb00014878001e407800c1
:103ed8000080fa00000006000000fa00f2ff070068
:103ee8000080fa00000006000000fa005087200059
:103ef800104078000080fa00000006000000fa0078
:103f0800f9ff07000080fa00000006000000fa0030
:103f1800508720008040eb00014878000080fa00bc
:103f2800000006000000fa00f8ff07000080fa0011
:043f3800000006007f
:020000040000fa
:103f3c007008000002000000800000001a08000059
:103f4c0002000000800000001c08000002000000bd
:103f5c00800000001e08000002000000800000002d
:103f6c002008000002000000800000002208000071
:103f7c000200000080000000240800000200000085
:103f8c0080000000260800000200000080000000f5
:103f9c002a0800004000000082000000ffffff0024
:103fac00ffffff00ffffff00ffffff00ffffff0011
:103fbc00ffffff00ffffff00ffffff00ffffff0001
:103fcc00ffffff00ffffff00ffffff00ffffff00f1
:103fdc00ffffff00ffffff00ffffff00ffffff00e1
:103fec00ffffff00ffffff00ffffff00ffffff00d1
:103ffc00ff000000000800000c0000008000000022
:10400c00160800000400000082000000aa01010054
:10401c000000000072080000020000008000000098
:10402c007408000002000000800000006a08000014
:10403c0006000000800000000c0800000a000000d0
:10404c008000000028080000020000008200000030
:08405c0001000000000000005b
:020000040000fa
:104064000000fa00a0002000200c8800500020006e
:10407400000c8800000e2000700c8800f010200056
:10408400500c88008821ef0030002000900c88003c
:1040940001088000f00b2000008160006004200013
:1040a40071052000031020008049780081497800c0
:1040b40082497800f11e8000f00f2c00808060009f
:1040c4000020210001007000f01e8800011f800004
:1040d40000fc2f00008060001001b300001f880066
:1040e400011f8000f00f2c00808060000000210080
:1040f40001007000001f8800111f8000f00f2c00c9
:104104008080600000f0200001007000101f880013
:10411400211f800000fc2f0000806000e000b3003d
:10412400201f8800211f8000f00f2c008080600079
:1041340000d0200001007000201f880001088000ca
:1041440000042000010170006004200071052000bb
:104154000310200080497800814978008249780062
:104164000080fa00000006000000fa000e000700bc
:10417400bbff070013000700c7fc0700d4fb0700c0
:10418400e1fa0700eef90700fbf8070008f807005a
:10419400b2fd07004cfe07007ef60700defe0700b6
:1041a4000080fa00000006000000fa00000023006e
:1041b400100888000621ef000021a9000080fa0001
:1041c400000006000000fa002005800000c0a000e6
:1041d40000d0a10000e0a10020058800e0058000d7
:1041e4000040a0000050a1000060a100e00588008c
:1041f4003005800000c0a00000d0a10000e0a100b4
:0c420400300588000080fa000000060071
:020000040000fa
:020000040001f9
:0457f000ffff0000b7
:020000040000fa
:020000040001f9
:0457f400fffe0000b4
:020000040000fa
:020000040001f9
:0457f8009fb8000056
:020000040000fa
:020000040001f9
:0457fc003f3f00002b
:00000001FF
